{
  "address": "0xF36C6F78444BF88fb0F7e2c83C68bA1B9805055A",
  "abi": [
    {
      "inputs": [],
      "name": "PIPELINE_NAME",
      "outputs": [
        {
          "internalType": "string",
          "name": "",
          "type": "string"
        }
      ],
      "stateMutability": "view",
      "type": "function"
    },
    {
      "inputs": [
        {
          "internalType": "contract IRegistry",
          "name": "registry",
          "type": "address"
        },
        {
          "internalType": "address",
          "name": "vault",
          "type": "address"
        },
        {
          "internalType": "address",
          "name": "tokenIn",
          "type": "address"
        },
        {
          "internalType": "uint256",
          "name": "amountIn",
          "type": "uint256"
        }
      ],
      "name": "deposit",
      "outputs": [
        {
          "internalType": "uint256",
          "name": "price",
          "type": "uint256"
        }
      ],
      "stateMutability": "nonpayable",
      "type": "function"
    },
    {
      "inputs": [
        {
          "internalType": "contract IRegistry",
          "name": "registry",
          "type": "address"
        },
        {
          "internalType": "address",
          "name": "vault",
          "type": "address"
        },
        {
          "internalType": "address",
          "name": "account",
          "type": "address"
        }
      ],
      "name": "getPrice",
      "outputs": [
        {
          "internalType": "uint256",
          "name": "",
          "type": "uint256"
        }
      ],
      "stateMutability": "view",
      "type": "function"
    },
    {
      "inputs": [
        {
          "internalType": "address",
          "name": "vault",
          "type": "address"
        }
      ],
      "name": "getUnderlying",
      "outputs": [
        {
          "internalType": "address[]",
          "name": "tokens",
          "type": "address[]"
        }
      ],
      "stateMutability": "view",
      "type": "function"
    },
    {
      "inputs": [
        {
          "internalType": "contract IRegistry",
          "name": "registry",
          "type": "address"
        },
        {
          "internalType": "address",
          "name": "vault",
          "type": "address"
        },
        {
          "internalType": "address",
          "name": "tokenOut",
          "type": "address"
        },
        {
          "internalType": "uint256",
          "name": "shareNum",
          "type": "uint256"
        },
        {
          "internalType": "uint256",
          "name": "shareDenom",
          "type": "uint256"
        }
      ],
      "name": "withdraw",
      "outputs": [
        {
          "internalType": "uint256",
          "name": "amountOut",
          "type": "uint256"
        }
      ],
      "stateMutability": "nonpayable",
      "type": "function"
    }
  ],
  "transactionHash": "0x29a866fe152adfeb3502326a291ae350474dca923e51b22f9415f735e28e877e",
  "args": [],
  "numDeployments": 1,
  "solcInputHash": "d3a545f609135317a3bfe4c2cf817d7c",
  "bytecode": "0x608060405234801561001057600080fd5b50611593806100206000396000f3fe608060405234801561001057600080fd5b50600436106100575760003560e01c80630284c3f51461005c5780634e89a711146100825780635cbc9b8d146100a25780637100d05c146100dc57806397da6d30146100ef575b600080fd5b61006f61006a366004610ede565b610102565b6040519081526020015b60405180910390f35b610095610090366004610f2f565b61030d565b6040516100799190610f97565b6100cf6040518060400160405280600e81526020016d416176655633506970656c696e6560901b81525081565b6040516100799190610fda565b61006f6100ea36600461100d565b6103c9565b61006f6100fd366004611058565b6104b9565b600080846001600160a01b031663b16a19de6040518163ffffffff1660e01b8152600401602060405180830381865afa158015610143573d6000803e3d6000fd5b505050506040513d601f19601f8201168201806040525081019061016791906110b3565b90506000856001600160a01b0316637535d2466040518163ffffffff1660e01b8152600401602060405180830381865afa1580156101a9573d6000803e3d6000fd5b505050506040513d601f19601f820116820180604052508101906101cd91906110b3565b90506000826001600160a01b0316866001600160a01b031614610206576101ff6001600160a01b0389168785886106ce565b9050610209565b50835b60405163095ea7b360e01b81526001600160a01b0383811660048301526024820183905284169063095ea7b3906044016020604051808303816000875af1158015610258573d6000803e3d6000fd5b505050506040513d601f19601f8201168201806040525081019061027c91906110d0565b5060405163617ba03760e01b81526001600160a01b038481166004830152602482018390523060448301526000606483015283169063617ba03790608401600060405180830381600087803b1580156102d457600080fd5b505af11580156102e8573d6000803e3d6000fd5b50610301925050506001600160a01b03891684836107de565b98975050505050505050565b60408051600180825281830190925260609160208083019080368337019050509050816001600160a01b031663b16a19de6040518163ffffffff1660e01b8152600401602060405180830381865afa15801561036d573d6000803e3d6000fd5b505050506040513d601f19601f8201168201806040525081019061039191906110b3565b816000815181106103a4576103a4611108565b60200260200101906001600160a01b031690816001600160a01b031681525050919050565b6040516370a0823160e01b81526001600160a01b03828116600483015260009182918516906370a0823190602401602060405180830381865afa158015610414573d6000803e3d6000fd5b505050506040513d601f19601f82011682018060405250810190610438919061111e565b90506104b0846001600160a01b031663b16a19de6040518163ffffffff1660e01b8152600401602060405180830381865afa15801561047b573d6000803e3d6000fd5b505050506040513d601f19601f8201168201806040525081019061049f91906110b3565b6001600160a01b03871690836107de565b95945050505050565b600080856001600160a01b031663b16a19de6040518163ffffffff1660e01b8152600401602060405180830381865afa1580156104fa573d6000803e3d6000fd5b505050506040513d601f19601f8201168201806040525081019061051e91906110b3565b90506000866001600160a01b0316637535d2466040518163ffffffff1660e01b8152600401602060405180830381865afa158015610560573d6000803e3d6000fd5b505050506040513d601f19601f8201168201806040525081019061058491906110b3565b6040516370a0823160e01b8152306004820152909150600090859087906001600160a01b038b16906370a0823190602401602060405180830381865afa1580156105d2573d6000803e3d6000fd5b505050506040513d601f19601f820116820180604052508101906105f6919061111e565b610600919061114d565b61060a919061116c565b604051631a4ca37b60e21b81526001600160a01b03858116600483015260248201839052306044830152919250908316906369328dec906064016020604051808303816000875af1158015610663573d6000803e3d6000fd5b505050506040513d601f19601f82011682018060405250810190610687919061111e565b9050826001600160a01b0316876001600160a01b0316146106be576106b76001600160a01b038a168489846106ce565b93506106c2565b8093505b50505095945050505050565b604051634b59de7960e01b81526001600160a01b03848116600483015283811660248301526000918291871690634b59de7990604401600060405180830381865afa158015610721573d6000803e3d6000fd5b505050506040513d6000823e601f3d908101601f1916820160405261074991908101906111e8565b9050600181516001811115610760576107606112bc565b146107d5576107d2866001600160a01b0316632f672d876040518163ffffffff1660e01b8152600401602060405180830381865afa1580156107a6573d6000803e3d6000fd5b505050506040513d601f19601f820116820180604052508101906107ca91906110b3565b868686610873565b91505b50949350505050565b6000826001600160a01b031663313ce5676040518163ffffffff1660e01b8152600401602060405180830381865afa15801561081e573d6000803e3d6000fd5b505050506040513d601f19601f8201168201806040525081019061084291906112d2565b61084d90600a6113d9565b6108578585610bc6565b610861908461114d565b61086b919061116c565b949350505050565b604080516002808252606082018352600092839291906020830190803683370190505090508484826000815181106108ad576108ad611108565b60200260200101836001815181106108c7576108c7611108565b6001600160a01b03938416602091820292909201015291811690915260405163d06ca61f60e01b815260009188169063d06ca61f9061090c90879086906004016113e8565b600060405180830381865afa92505050801561094a57506040513d6000823e601f3d908101601f191682016040526109479190810190611401565b60015b1561097a57806001825161095e919061149b565b8151811061096e5761096e611108565b60200260200101519150505b60408051600380825260808201909252600091829190602082016060803683370190505090506000896001600160a01b031663ad5c46486040518163ffffffff1660e01b8152600401602060405180830381865afa1580156109e0573d6000803e3d6000fd5b505050506040513d601f19601f82011682018060405250810190610a0491906110b3565b9050806001600160a01b0316896001600160a01b031614158015610a3a5750806001600160a01b0316886001600160a01b031614155b15610b3f5788818984600081518110610a5557610a55611108565b6020026020010185600181518110610a6f57610a6f611108565b6020026020010186600281518110610a8957610a89611108565b6001600160a01b039485166020918202929092010152928216909252918216905260405163d06ca61f60e01b8152908b169063d06ca61f90610ad1908a9086906004016113e8565b600060405180830381865afa925050508015610b0f57506040513d6000823e601f3d908101601f19168201604052610b0c9190810190611401565b60015b15610b3f578060018251610b23919061149b565b81518110610b3357610b33611108565b60200260200101519350505b6000841180610b4e5750600083115b610b9f5760405162461bcd60e51b815260206004820152601760248201527f4e6f207377617020726f75746520617661696c61626c6500000000000000000060448201526064015b60405180910390fd5b610bb88a848611610bb05783610bb2565b865b89610ce4565b9a9950505050505050505050565b60405162b6d99560e71b81526001600160a01b0382811660048301526000918291851690635b6cca8090602401602060405180830381865afa158015610c10573d6000803e3d6000fd5b505050506040513d601f19601f82011682018060405250810190610c3491906110b3565b90506001600160a01b03811615610cd5576000816001600160a01b031663feaf968c6040518163ffffffff1660e01b815260040160a060405180830381865afa158015610c85573d6000803e3d6000fd5b505050506040513d601f19601f82011682018060405250810190610ca991906114d1565b5050509150506000811215610cc357600092505050610cde565b610ccc81610e70565b92505050610cde565b6305f5e1009150505b92915050565b600082600081518110610cf957610cf9611108565b602090810291909101015160405163095ea7b360e01b81526001600160a01b038681166004830152602482018590529091169063095ea7b3906044016020604051808303816000875af1158015610d54573d6000803e3d6000fd5b505050506040513d601f19601f82011682018060405250810190610d7891906110d0565b506040516338ed173960e01b81526000906001600160a01b038616906338ed173990610db09086908590899030904290600401611521565b6000604051808303816000875af1158015610dcf573d6000803e3d6000fd5b505050506040513d6000823e601f3d908101601f19168201604052610df79190810190611401565b90508060018251610e08919061149b565b81518110610e1857610e18611108565b6020026020010151915060008211610e685760405162461bcd60e51b815260206004820152601360248201527243616e2774207377617020666f72207a65726f60681b6044820152606401610b96565b509392505050565b600080821215610ec25760405162461bcd60e51b815260206004820181905260248201527f53616665436173743a2076616c7565206d75737420626520706f7369746976656044820152606401610b96565b5090565b6001600160a01b0381168114610edb57600080fd5b50565b60008060008060808587031215610ef457600080fd5b8435610eff81610ec6565b93506020850135610f0f81610ec6565b92506040850135610f1f81610ec6565b9396929550929360600135925050565b600060208284031215610f4157600080fd5b8135610f4c81610ec6565b9392505050565b600081518084526020808501945080840160005b83811015610f8c5781516001600160a01b031687529582019590820190600101610f67565b509495945050505050565b602081526000610f4c6020830184610f53565b60005b83811015610fc5578181015183820152602001610fad565b83811115610fd4576000848401525b50505050565b6020815260008251806020840152610ff9816040850160208701610faa565b601f01601f19169190910160400192915050565b60008060006060848603121561102257600080fd5b833561102d81610ec6565b9250602084013561103d81610ec6565b9150604084013561104d81610ec6565b809150509250925092565b600080600080600060a0868803121561107057600080fd5b853561107b81610ec6565b9450602086013561108b81610ec6565b9350604086013561109b81610ec6565b94979396509394606081013594506080013592915050565b6000602082840312156110c557600080fd5b8151610f4c81610ec6565b6000602082840312156110e257600080fd5b81518015158114610f4c57600080fd5b634e487b7160e01b600052604160045260246000fd5b634e487b7160e01b600052603260045260246000fd5b60006020828403121561113057600080fd5b5051919050565b634e487b7160e01b600052601160045260246000fd5b600081600019048311821515161561116757611167611137565b500290565b60008261118957634e487b7160e01b600052601260045260246000fd5b500490565b6040805190810167ffffffffffffffff811182821017156111b1576111b16110f2565b60405290565b604051601f8201601f1916810167ffffffffffffffff811182821017156111e0576111e06110f2565b604052919050565b600060208083850312156111fb57600080fd5b825167ffffffffffffffff8082111561121357600080fd5b908401906040828703121561122757600080fd5b61122f61118e565b82516002811061123e57600080fd5b8152828401518281111561125157600080fd5b80840193505086601f84011261126657600080fd5b825182811115611278576112786110f2565b61128a601f8201601f191686016111b7565b925080835287858286010111156112a057600080fd5b6112af81868501878701610faa565b5092830152509392505050565b634e487b7160e01b600052602160045260246000fd5b6000602082840312156112e457600080fd5b815160ff81168114610f4c57600080fd5b600181815b8085111561133057816000190482111561131657611316611137565b8085161561132357918102915b93841c93908002906112fa565b509250929050565b60008261134757506001610cde565b8161135457506000610cde565b816001811461136a576002811461137457611390565b6001915050610cde565b60ff84111561138557611385611137565b50506001821b610cde565b5060208310610133831016604e8410600b84101617156113b3575081810a610cde565b6113bd83836112f5565b80600019048211156113d1576113d1611137565b029392505050565b6000610f4c60ff841683611338565b82815260406020820152600061086b6040830184610f53565b6000602080838503121561141457600080fd5b825167ffffffffffffffff8082111561142c57600080fd5b818501915085601f83011261144057600080fd5b815181811115611452576114526110f2565b8060051b91506114638483016111b7565b818152918301840191848101908884111561147d57600080fd5b938501935b8385101561030157845182529385019390850190611482565b6000828210156114ad576114ad611137565b500390565b805169ffffffffffffffffffff811681146114cc57600080fd5b919050565b600080600080600060a086880312156114e957600080fd5b6114f2866114b2565b9450602086015193506040860151925060608601519150611515608087016114b2565b90509295509295909350565b85815284602082015260a06040820152600061154060a0830186610f53565b6001600160a01b039490941660608301525060800152939250505056fea26469706673582212209c92c2e7926650f61c0819bcbc8494e236468e7aa0b3144d7cb177d906ee5be064736f6c634300080d0033",
  "devdoc": {
    "kind": "dev",
    "methods": {},
    "version": 1
  },
  "userdoc": {
    "kind": "user",
    "methods": {},
    "version": 1
  },
  "storageLayout": {
    "storage": [],
    "types": null
  }
}