{
  "address": "0x3786a1046c0B7581B64E28331997Dc2d279324E2",
  "abi": [
    {
      "inputs": [
        {
          "internalType": "address",
          "name": "registry_",
          "type": "address"
        },
        {
          "internalType": "address",
          "name": "indexMaster_",
          "type": "address"
        }
      ],
      "stateMutability": "nonpayable",
      "type": "constructor"
    },
    {
      "anonymous": false,
      "inputs": [
        {
          "indexed": true,
          "internalType": "address",
          "name": "index",
          "type": "address"
        }
      ],
      "name": "IndexCreated",
      "type": "event"
    },
    {
      "inputs": [
        {
          "internalType": "string",
          "name": "name",
          "type": "string"
        },
        {
          "internalType": "string",
          "name": "symbol",
          "type": "string"
        },
        {
          "components": [
            {
              "internalType": "address",
              "name": "vault",
              "type": "address"
            },
            {
              "internalType": "uint256",
              "name": "targetWeight",
              "type": "uint256"
            }
          ],
          "internalType": "struct IVaultIndex.Component[]",
          "name": "components",
          "type": "tuple[]"
        }
      ],
      "name": "createIndex",
      "outputs": [
        {
          "internalType": "address",
          "name": "index",
          "type": "address"
        }
      ],
      "stateMutability": "nonpayable",
      "type": "function"
    },
    {
      "inputs": [],
      "name": "indexMaster",
      "outputs": [
        {
          "internalType": "address",
          "name": "",
          "type": "address"
        }
      ],
      "stateMutability": "view",
      "type": "function"
    },
    {
      "inputs": [],
      "name": "registry",
      "outputs": [
        {
          "internalType": "address",
          "name": "",
          "type": "address"
        }
      ],
      "stateMutability": "view",
      "type": "function"
    }
  ],
  "transactionHash": "0xa32b262bc7f934053a72ecd3a47ffc2d23ff1f8ae73320fe0f000a87ac2e3bdf",
  "args": [
    "0x2a4a3494e1f8D8fD3eEf2b53c6105F2bB0C07322",
    "0x544C9160505712d6B5E12888b5eB9bCb708885aF"
  ],
  "numDeployments": 1,
  "solcInputHash": "d3a545f609135317a3bfe4c2cf817d7c",
  "bytecode": "0x608060405234801561001057600080fd5b506040516104c13803806104c183398101604081905261002f9161007c565b600080546001600160a01b039384166001600160a01b031991821617909155600180549290931691161790556100af565b80516001600160a01b038116811461007757600080fd5b919050565b6000806040838503121561008f57600080fd5b61009883610060565b91506100a660208401610060565b90509250929050565b610403806100be6000396000f3fe608060405234801561001057600080fd5b50600436106100415760003560e01c80637b103999146100465780639130b4e814610075578063f893553114610088575b600080fd5b600054610059906001600160a01b031681565b6040516001600160a01b03909116815260200160405180910390f35b600154610059906001600160a01b031681565b610059610096366004610243565b6001546000906100ae906001600160a01b0316610159565b60405163371cc72560e01b81529091506001600160a01b0382169063371cc725906100e9908a908a908a908a9033908b908b90600401610335565b600060405180830381600087803b15801561010357600080fd5b505af1158015610117573d6000803e3d6000fd5b50506040516001600160a01b03841692507f55aca3d5e8fb9f865553e8daded233b5d3a97a8ac5bae7d88218a2263506f7629150600090a29695505050505050565b6000604051733d602d80600a3d3981f3363d3d373d3d3d363d7360601b81528260601b60148201526e5af43d82803e903d91602b57fd5bf360881b60288201526037816000f09150506001600160a01b0381166101f55760405162461bcd60e51b8152602060048201526016602482015275115490cc4c4d8dce8818dc99585d194819985a5b195960521b604482015260640160405180910390fd5b919050565b60008083601f84011261020c57600080fd5b50813567ffffffffffffffff81111561022457600080fd5b60208301915083602082850101111561023c57600080fd5b9250929050565b6000806000806000806060878903121561025c57600080fd5b863567ffffffffffffffff8082111561027457600080fd5b6102808a838b016101fa565b9098509650602089013591508082111561029957600080fd5b6102a58a838b016101fa565b909650945060408901359150808211156102be57600080fd5b818901915089601f8301126102d257600080fd5b8135818111156102e157600080fd5b8a60208260061b85010111156102f657600080fd5b6020830194508093505050509295509295509295565b81835281816020850137506000828201602090810191909152601f909101601f19169091010190565b60808152600061034960808301898b61030c565b60208382038185015261035d82898b61030c565b6001600160a01b0388811660408781019190915286830360608801528783528894509183016000805b898110156103b957863584811680821461039e578384fd5b84525086860135868401529584019591840191600101610386565b50909e9d505050505050505050505050505056fea26469706673582212207f4d46ae7bf79c6ab91c2417d025886467a64d15a138972000cd107b7957fb0b64736f6c634300080d0033",
  "devdoc": {
    "kind": "dev",
    "methods": {},
    "version": 1
  },
  "userdoc": {
    "kind": "user",
    "methods": {},
    "version": 1
  },
  "storageLayout": {
    "storage": [
      {
        "astId": 5221,
        "contract": "contracts/Factory.sol:Factory",
        "label": "registry",
        "offset": 0,
        "slot": "0",
        "type": "t_address"
      },
      {
        "astId": 5223,
        "contract": "contracts/Factory.sol:Factory",
        "label": "indexMaster",
        "offset": 0,
        "slot": "1",
        "type": "t_address"
      }
    ],
    "types": {
      "t_address": {
        "encoding": "inplace",
        "label": "address",
        "numberOfBytes": "20"
      }
    }
  }
}