{
  "address": "0x544C9160505712d6B5E12888b5eB9bCb708885aF",
  "abi": [
    {
      "anonymous": false,
      "inputs": [
        {
          "indexed": true,
          "internalType": "address",
          "name": "owner",
          "type": "address"
        },
        {
          "indexed": true,
          "internalType": "address",
          "name": "spender",
          "type": "address"
        },
        {
          "indexed": false,
          "internalType": "uint256",
          "name": "value",
          "type": "uint256"
        }
      ],
      "name": "Approval",
      "type": "event"
    },
    {
      "anonymous": false,
      "inputs": [
        {
          "components": [
            {
              "internalType": "address",
              "name": "vault",
              "type": "address"
            },
            {
              "internalType": "uint256",
              "name": "targetWeight",
              "type": "uint256"
            }
          ],
          "indexed": false,
          "internalType": "struct IVaultIndex.Component",
          "name": "component",
          "type": "tuple"
        },
        {
          "indexed": false,
          "internalType": "uint256",
          "name": "order",
          "type": "uint256"
        }
      ],
      "name": "ComponentAdded",
      "type": "event"
    },
    {
      "anonymous": false,
      "inputs": [
        {
          "components": [
            {
              "internalType": "address",
              "name": "vault",
              "type": "address"
            },
            {
              "internalType": "uint256",
              "name": "targetWeight",
              "type": "uint256"
            }
          ],
          "indexed": false,
          "internalType": "struct IVaultIndex.Component",
          "name": "component",
          "type": "tuple"
        },
        {
          "indexed": false,
          "internalType": "uint256",
          "name": "order",
          "type": "uint256"
        }
      ],
      "name": "ComponentRemoved",
      "type": "event"
    },
    {
      "anonymous": false,
      "inputs": [
        {
          "indexed": false,
          "internalType": "address",
          "name": "account",
          "type": "address"
        },
        {
          "indexed": false,
          "internalType": "address",
          "name": "tokenIn",
          "type": "address"
        },
        {
          "indexed": false,
          "internalType": "uint256",
          "name": "amount",
          "type": "uint256"
        }
      ],
      "name": "Deposit",
      "type": "event"
    },
    {
      "anonymous": false,
      "inputs": [
        {
          "indexed": false,
          "internalType": "uint8",
          "name": "version",
          "type": "uint8"
        }
      ],
      "name": "Initialized",
      "type": "event"
    },
    {
      "anonymous": false,
      "inputs": [
        {
          "indexed": true,
          "internalType": "address",
          "name": "previousOwner",
          "type": "address"
        },
        {
          "indexed": true,
          "internalType": "address",
          "name": "newOwner",
          "type": "address"
        }
      ],
      "name": "OwnershipTransferred",
      "type": "event"
    },
    {
      "anonymous": false,
      "inputs": [
        {
          "indexed": true,
          "internalType": "address",
          "name": "from",
          "type": "address"
        },
        {
          "indexed": true,
          "internalType": "address",
          "name": "to",
          "type": "address"
        },
        {
          "indexed": false,
          "internalType": "uint256",
          "name": "value",
          "type": "uint256"
        }
      ],
      "name": "Transfer",
      "type": "event"
    },
    {
      "anonymous": false,
      "inputs": [
        {
          "indexed": false,
          "internalType": "address",
          "name": "account",
          "type": "address"
        },
        {
          "indexed": false,
          "internalType": "address",
          "name": "tokenOut",
          "type": "address"
        },
        {
          "indexed": false,
          "internalType": "uint256",
          "name": "amount",
          "type": "uint256"
        }
      ],
      "name": "Withdrawal",
      "type": "event"
    },
    {
      "inputs": [
        {
          "components": [
            {
              "internalType": "address",
              "name": "vault",
              "type": "address"
            },
            {
              "internalType": "uint256",
              "name": "targetWeight",
              "type": "uint256"
            }
          ],
          "internalType": "struct IVaultIndex.Component",
          "name": "component",
          "type": "tuple"
        }
      ],
      "name": "addComponent",
      "outputs": [],
      "stateMutability": "nonpayable",
      "type": "function"
    },
    {
      "inputs": [],
      "name": "adjustWeights",
      "outputs": [],
      "stateMutability": "nonpayable",
      "type": "function"
    },
    {
      "inputs": [
        {
          "internalType": "address",
          "name": "owner",
          "type": "address"
        },
        {
          "internalType": "address",
          "name": "spender",
          "type": "address"
        }
      ],
      "name": "allowance",
      "outputs": [
        {
          "internalType": "uint256",
          "name": "",
          "type": "uint256"
        }
      ],
      "stateMutability": "view",
      "type": "function"
    },
    {
      "inputs": [
        {
          "internalType": "address",
          "name": "spender",
          "type": "address"
        },
        {
          "internalType": "uint256",
          "name": "amount",
          "type": "uint256"
        }
      ],
      "name": "approve",
      "outputs": [
        {
          "internalType": "bool",
          "name": "",
          "type": "bool"
        }
      ],
      "stateMutability": "nonpayable",
      "type": "function"
    },
    {
      "inputs": [
        {
          "internalType": "address",
          "name": "account",
          "type": "address"
        }
      ],
      "name": "balanceOf",
      "outputs": [
        {
          "internalType": "uint256",
          "name": "",
          "type": "uint256"
        }
      ],
      "stateMutability": "view",
      "type": "function"
    },
    {
      "inputs": [
        {
          "internalType": "uint256",
          "name": "",
          "type": "uint256"
        }
      ],
      "name": "components",
      "outputs": [
        {
          "internalType": "address",
          "name": "vault",
          "type": "address"
        },
        {
          "internalType": "uint256",
          "name": "targetWeight",
          "type": "uint256"
        }
      ],
      "stateMutability": "view",
      "type": "function"
    },
    {
      "inputs": [],
      "name": "decimals",
      "outputs": [
        {
          "internalType": "uint8",
          "name": "",
          "type": "uint8"
        }
      ],
      "stateMutability": "view",
      "type": "function"
    },
    {
      "inputs": [
        {
          "internalType": "address",
          "name": "spender",
          "type": "address"
        },
        {
          "internalType": "uint256",
          "name": "subtractedValue",
          "type": "uint256"
        }
      ],
      "name": "decreaseAllowance",
      "outputs": [
        {
          "internalType": "bool",
          "name": "",
          "type": "bool"
        }
      ],
      "stateMutability": "nonpayable",
      "type": "function"
    },
    {
      "inputs": [
        {
          "internalType": "contract IERC20",
          "name": "tokenIn",
          "type": "address"
        },
        {
          "internalType": "uint256",
          "name": "amount",
          "type": "uint256"
        }
      ],
      "name": "deposit",
      "outputs": [],
      "stateMutability": "nonpayable",
      "type": "function"
    },
    {
      "inputs": [
        {
          "internalType": "uint256",
          "name": "order",
          "type": "uint256"
        }
      ],
      "name": "getComponentPrice",
      "outputs": [
        {
          "internalType": "uint256",
          "name": "price",
          "type": "uint256"
        }
      ],
      "stateMutability": "view",
      "type": "function"
    },
    {
      "inputs": [],
      "name": "getComponentPrices",
      "outputs": [
        {
          "internalType": "uint256[]",
          "name": "prices",
          "type": "uint256[]"
        },
        {
          "internalType": "uint256",
          "name": "totalPrice",
          "type": "uint256"
        }
      ],
      "stateMutability": "view",
      "type": "function"
    },
    {
      "inputs": [
        {
          "internalType": "uint256",
          "name": "order",
          "type": "uint256"
        }
      ],
      "name": "getComponentUnderlying",
      "outputs": [
        {
          "internalType": "address[]",
          "name": "",
          "type": "address[]"
        }
      ],
      "stateMutability": "view",
      "type": "function"
    },
    {
      "inputs": [
        {
          "internalType": "address",
          "name": "spender",
          "type": "address"
        },
        {
          "internalType": "uint256",
          "name": "addedValue",
          "type": "uint256"
        }
      ],
      "name": "increaseAllowance",
      "outputs": [
        {
          "internalType": "bool",
          "name": "",
          "type": "bool"
        }
      ],
      "stateMutability": "nonpayable",
      "type": "function"
    },
    {
      "inputs": [
        {
          "internalType": "string",
          "name": "name_",
          "type": "string"
        },
        {
          "internalType": "string",
          "name": "symbol_",
          "type": "string"
        },
        {
          "internalType": "address",
          "name": "owner_",
          "type": "address"
        },
        {
          "components": [
            {
              "internalType": "address",
              "name": "vault",
              "type": "address"
            },
            {
              "internalType": "uint256",
              "name": "targetWeight",
              "type": "uint256"
            }
          ],
          "internalType": "struct IVaultIndex.Component[]",
          "name": "components_",
          "type": "tuple[]"
        }
      ],
      "name": "initialize",
      "outputs": [],
      "stateMutability": "nonpayable",
      "type": "function"
    },
    {
      "inputs": [],
      "name": "name",
      "outputs": [
        {
          "internalType": "string",
          "name": "",
          "type": "string"
        }
      ],
      "stateMutability": "view",
      "type": "function"
    },
    {
      "inputs": [],
      "name": "owner",
      "outputs": [
        {
          "internalType": "address",
          "name": "",
          "type": "address"
        }
      ],
      "stateMutability": "view",
      "type": "function"
    },
    {
      "inputs": [
        {
          "internalType": "uint256",
          "name": "od",
          "type": "uint256"
        },
        {
          "internalType": "uint256",
          "name": "oi",
          "type": "uint256"
        },
        {
          "internalType": "uint256",
          "name": "shareNum",
          "type": "uint256"
        },
        {
          "internalType": "uint256",
          "name": "shareDenom",
          "type": "uint256"
        },
        {
          "internalType": "bool",
          "name": "adjustWeight",
          "type": "bool"
        }
      ],
      "name": "rebalanceFromTo",
      "outputs": [],
      "stateMutability": "nonpayable",
      "type": "function"
    },
    {
      "inputs": [],
      "name": "registry",
      "outputs": [
        {
          "internalType": "contract IRegistry",
          "name": "",
          "type": "address"
        }
      ],
      "stateMutability": "view",
      "type": "function"
    },
    {
      "inputs": [
        {
          "internalType": "uint256",
          "name": "order",
          "type": "uint256"
        }
      ],
      "name": "removeComponent",
      "outputs": [],
      "stateMutability": "nonpayable",
      "type": "function"
    },
    {
      "inputs": [],
      "name": "renounceOwnership",
      "outputs": [],
      "stateMutability": "nonpayable",
      "type": "function"
    },
    {
      "inputs": [
        {
          "internalType": "uint256[]",
          "name": "weights",
          "type": "uint256[]"
        }
      ],
      "name": "setTargetWeights",
      "outputs": [],
      "stateMutability": "nonpayable",
      "type": "function"
    },
    {
      "inputs": [],
      "name": "symbol",
      "outputs": [
        {
          "internalType": "string",
          "name": "",
          "type": "string"
        }
      ],
      "stateMutability": "view",
      "type": "function"
    },
    {
      "inputs": [
        {
          "internalType": "uint256",
          "name": "order",
          "type": "uint256"
        }
      ],
      "name": "targetComponent",
      "outputs": [],
      "stateMutability": "nonpayable",
      "type": "function"
    },
    {
      "inputs": [],
      "name": "totalSupply",
      "outputs": [
        {
          "internalType": "uint256",
          "name": "",
          "type": "uint256"
        }
      ],
      "stateMutability": "view",
      "type": "function"
    },
    {
      "inputs": [],
      "name": "totalWeight",
      "outputs": [
        {
          "internalType": "uint256",
          "name": "",
          "type": "uint256"
        }
      ],
      "stateMutability": "view",
      "type": "function"
    },
    {
      "inputs": [
        {
          "internalType": "address",
          "name": "to",
          "type": "address"
        },
        {
          "internalType": "uint256",
          "name": "amount",
          "type": "uint256"
        }
      ],
      "name": "transfer",
      "outputs": [
        {
          "internalType": "bool",
          "name": "",
          "type": "bool"
        }
      ],
      "stateMutability": "nonpayable",
      "type": "function"
    },
    {
      "inputs": [
        {
          "internalType": "address",
          "name": "from",
          "type": "address"
        },
        {
          "internalType": "address",
          "name": "to",
          "type": "address"
        },
        {
          "internalType": "uint256",
          "name": "amount",
          "type": "uint256"
        }
      ],
      "name": "transferFrom",
      "outputs": [
        {
          "internalType": "bool",
          "name": "",
          "type": "bool"
        }
      ],
      "stateMutability": "nonpayable",
      "type": "function"
    },
    {
      "inputs": [
        {
          "internalType": "address",
          "name": "newOwner",
          "type": "address"
        }
      ],
      "name": "transferOwnership",
      "outputs": [],
      "stateMutability": "nonpayable",
      "type": "function"
    },
    {
      "inputs": [
        {
          "internalType": "contract IERC20",
          "name": "tokenOut",
          "type": "address"
        },
        {
          "internalType": "uint256",
          "name": "tokens",
          "type": "uint256"
        }
      ],
      "name": "withdraw",
      "outputs": [
        {
          "internalType": "uint256",
          "name": "amountOut",
          "type": "uint256"
        }
      ],
      "stateMutability": "nonpayable",
      "type": "function"
    }
  ],
  "transactionHash": "0x6b58bd9b8fff0f790e9f5795bdfba22dae2fa7c1470fcb31ab3ec99db49dfb30",
  "args": [],
  "numDeployments": 1,
  "solcInputHash": "d3a545f609135317a3bfe4c2cf817d7c",
  "bytecode": "0x608060405234801561001057600080fd5b50613022806100206000396000f3fe608060405234801561001057600080fd5b50600436106101cf5760003560e01c80637b10399911610104578063a7cb4192116100a2578063dd62ed3e11610071578063dd62ed3e146103f7578063f0d175cb1461040a578063f2fde38b1461041d578063f3fef3a31461043057600080fd5b8063a7cb41921461038a578063a9059cbb14610392578063c5d574fe146103a5578063d436794d146103d757600080fd5b8063947366eb116100de578063947366eb1461035357806395d89b411461036657806396c82e571461036e578063a457c2d71461037757600080fd5b80637b103999146103015780638da5cb5b1461032c578063932a1e5e1461033d57600080fd5b8063313ce5671161017157806347e7ef241161014b57806347e7ef24146102aa5780636a7b9364146102bd57806370a08231146102d0578063715018a6146102f957600080fd5b8063313ce56714610275578063371cc72514610284578063395093511461029757600080fd5b80630f4f71bb116101ad5780630f4f71bb1461022a57806318160ddd1461023d57806323b872dd1461024f578063305f42791461026257600080fd5b806304edb620146101d457806306fdde03146101e9578063095ea7b314610207575b600080fd5b6101e76101e236600461281f565b610443565b005b6101f161054d565b6040516101fe91906128c0565b60405180910390f35b61021a610215366004612908565b6105df565b60405190151581526020016101fe565b6101e7610238366004612934565b6105f7565b6035545b6040519081526020016101fe565b61021a61025d36600461294d565b61062d565b6101e7610270366004612934565b610653565b604051601281526020016101fe565b6101e76102923660046129d7565b61081b565b61021a6102a5366004612908565b610b16565b6101e76102b8366004612908565b610b38565b6102416102cb366004612934565b610d45565b6102416102de366004612ab6565b6001600160a01b031660009081526033602052604090205490565b6101e7610d82565b600054610314906001600160a01b031681565b6040516001600160a01b0390911681526020016101fe565b6065546001600160a01b0316610314565b610345610db8565b6040516101fe929190612ad3565b6101e7610361366004612b29565b610e76565b6101f1611015565b61024160985481565b61021a610385366004612908565b611024565b6101e76110aa565b61021a6103a0366004612908565b61117a565b6103b86103b3366004612934565b611188565b604080516001600160a01b0390931683526020830191909152016101fe565b6103ea6103e5366004612934565b6111c0565b6040516101fe9190612b76565b610241610405366004612bc3565b6111f7565b6101e7610418366004612c43565b611222565b6101e761042b366004612ab6565b61141b565b61024161043e366004612908565b6114b3565b6065546001600160a01b031633146104765760405162461bcd60e51b815260040161046d90612c9b565b60405180910390fd5b60975481146104c05760405162461bcd60e51b8152602060048201526016602482015275092dcecc2d8d2c840eecad2ced0e8e640d8cadccee8d60531b604482015260640161046d565b6000805b82811015610545578383828181106104de576104de612cd0565b90506020020135609782815481106104f8576104f8612cd0565b90600052602060002090600202016001018190555083838281811061051f5761051f612cd0565b90506020020135826105319190612cfc565b91508061053d81612d14565b9150506104c4565b506098555050565b60606036805461055c90612d2d565b80601f016020809104026020016040519081016040528092919081815260200182805461058890612d2d565b80156105d55780601f106105aa576101008083540402835291602001916105d5565b820191906000526020600020905b8154815290600101906020018083116105b857829003601f168201915b5050505050905090565b6000336105ed818585611645565b5060019392505050565b6065546001600160a01b031633146106215760405162461bcd60e51b815260040161046d90612c9b565b61062a8161176a565b50565b60003361063b858285611907565b61064685858561197b565b60019150505b9392505050565b6065546001600160a01b0316331461067d5760405162461bcd60e51b815260040161046d90612c9b565b6097818154811061069057610690612cd0565b906000526020600020906002020160010154609860008282546106b39190612d67565b925050819055506000609782815481106106cf576106cf612cd0565b9060005260206000209060020201600101819055506106ed8161176a565b7fed5e577ab42e81a8ad225f92e34f66b2a12c5c4afe112a2b247a5892a9c451aa6097828154811061072157610721612cd0565b90600052602060002090600202018260405161075d92919082546001600160a01b03168152600192909201546020830152604082015260600190565b60405180910390a16097805461077590600190612d67565b8154811061078557610785612cd0565b9060005260206000209060020201609782815481106107a6576107a6612cd0565b60009182526020909120825460029092020180546001600160a01b0319166001600160a01b0390921691909117815560019182015491015560978054806107ef576107ef612d7e565b60008281526020812060026000199093019283020180546001600160a01b031916815560010155905550565b60006108276001611b49565b90508015610843576000805460ff60a81b1916600160a81b1790555b61084b611be4565b6108be88888080601f01602080910402602001604051908101604052809392919081815260200183838082843760009201919091525050604080516020601f8c018190048102820181019092528a815292508a9150899081908401838280828437600092019190915250611c1592505050565b336001600160a01b0316637b1039996040518163ffffffff1660e01b8152600401602060405180830381865afa1580156108fc573d6000803e3d6000fd5b505050506040513d601f19601f820116820180604052508101906109209190612d94565b600080546001600160a01b0319166001600160a01b03929092169190911790556109498461141b565b6000805b83811015610ac057600080546001600160a01b0316638b3f14f087878581811061097957610979612cd0565b61098f9260206040909202019081019150612ab6565b6040516001600160e01b031960e084901b1681526001600160a01b039091166004820152602401602060405180830381865afa1580156109d3573d6000803e3d6000fd5b505050506040513d601f19601f820116820180604052508101906109f79190612d94565b6001600160a01b031603610a415760405162461bcd60e51b8152602060048201526011602482015270155b9cdd5c1c1bdc9d1959081d985d5b1d607a1b604482015260640161046d565b6097858583818110610a5557610a55612cd0565b835460018101855560009485526020909420604090910292909201926002029091019050610a838282612db1565b5050848482818110610a9757610a97612cd0565b9050604002016020013582610aac9190612cfc565b915080610ab881612d14565b91505061094d565b506098558015610b0c576000805460ff60a81b19169055604051600181527f7f26b83ff96e1f2b6a682f133852f6798a09c465da95921460cefb38474024989060200160405180910390a15b5050505050505050565b6000336105ed818585610b2983836111f7565b610b339190612cfc565b611645565b60005460405163b5af090f60e01b81526001600160a01b0384811660048301529091169063b5af090f90602401602060405180830381865afa158015610b82573d6000803e3d6000fd5b505050506040513d601f19601f82011682018060405250810190610ba69190612de7565b610be95760405162461bcd60e51b81526020600482015260146024820152732ab739bab83837b93a32b2103a37b5b2b71034b760611b604482015260640161046d565b6000610bf3610db8565b9150610c0c90506001600160a01b038416333085611c4c565b6000805b609754811015610cb657610c9860978281548110610c3057610c30612cd0565b906000526020600020906002020160000160009054906101000a90046001600160a01b03168660985460978581548110610c6c57610c6c612cd0565b90600052602060002090600202016001015488610c899190612e04565b610c939190612e23565b611cb7565b610ca29083612cfc565b915080610cae81612d14565b915050610c10565b5081600003610cce57610cc93382611dcb565b610cf6565b610cf6338383610cdd60355490565b610ce79190612e04565b610cf19190612e23565b611dcb565b604080513381526001600160a01b03861660208201529081018490527f5548c837ab068cf56a2c2479df0882a4922fd203edb7517321831d95078c5f629060600160405180910390a150505050565b6000610d7c60978381548110610d5d57610d5d612cd0565b60009182526020909120600290910201546001600160a01b0316611eaa565b92915050565b6065546001600160a01b03163314610dac5760405162461bcd60e51b815260040161046d90612c9b565b610db66000611f97565b565b60975460609060009067ffffffffffffffff811115610dd957610dd9612bfc565b604051908082528060200260200182016040528015610e02578160200160208202803683370190505b50915060005b8251811015610e7157610e1a81610d45565b838281518110610e2c57610e2c612cd0565b602002602001018181525050828181518110610e4a57610e4a612cd0565b602002602001015182610e5d9190612cfc565b915080610e6981612d14565b915050610e08565b509091565b6065546001600160a01b03163314610ea05760405162461bcd60e51b815260040161046d90612c9b565b610eac85858585611fe9565b801561100e57600080610ebd610db8565b91509150600060978881548110610ed657610ed6612cd0565b90600052602060002090600202019050600060978881548110610efb57610efb612cd0565b906000526020600020906002020190506000848981518110610f1f57610f1f612cd0565b6020026020010151858b81518110610f3957610f39612cd0565b602002602001015185610f4c9190612d67565b610f569190612d67565b9050600082600101548460010154609854610f719190612d67565b610f7b9190612d67565b905081868c81518110610f9057610f90612cd0565b602002602001015182610fa39190612e04565b610fad9190612e23565b846001018190555081868b81518110610fc857610fc8612cd0565b602002602001015182610fdb9190612e04565b610fe59190612e23565b6001808501829055850154610ffa9083612cfc565b6110049190612cfc565b6098555050505050505b5050505050565b60606037805461055c90612d2d565b6000338161103282866111f7565b9050838110156110925760405162461bcd60e51b815260206004820152602560248201527f45524332303a2064656372656173656420616c6c6f77616e63652062656c6f77604482015264207a65726f60d81b606482015260840161046d565b61109f8286868403611645565b506001949350505050565b6065546001600160a01b031633146110d45760405162461bcd60e51b815260040161046d90612c9b565b6000806110df610db8565b9092509050633b9aca006000805b84518110156111715760008486838151811061110b5761110b612cd0565b60200260200101518561111e9190612e04565b6111289190612e23565b90506111348184612cfc565b9250806097838154811061114a5761114a612cd0565b6000918252602090912060016002909202010155508061116981612d14565b9150506110ed565b50609855505050565b6000336105ed81858561197b565b6097818154811061119857600080fd5b6000918252602090912060029091020180546001909101546001600160a01b03909116915082565b6060610d7c609783815481106111d8576111d8612cd0565b60009182526020909120600290910201546001600160a01b031661208c565b6001600160a01b03918216600090815260346020908152604080832093909416825291909152205490565b6065546001600160a01b0316331461124c5760405162461bcd60e51b815260040161046d90612c9b565b6000805482516040516308b3f14f60e41b81526001600160a01b039182166004820152911690638b3f14f090602401602060405180830381865afa158015611298573d6000803e3d6000fd5b505050506040513d601f19601f820116820180604052508101906112bc9190612d94565b6001600160a01b0316036113065760405162461bcd60e51b8152602060048201526011602482015270155b9cdd5c1c1bdc9d1959081d985d5b1d607a1b604482015260640161046d565b60978054600181018255600091825282517f354a83ed9988f79f6038d4c7a7dadbad8af32f4ad6df893e0e5807a1b1944ff9600290920291820180546001600160a01b0319166001600160a01b0390921691909117905560208301517f354a83ed9988f79f6038d4c7a7dadbad8af32f4ad6df893e0e5807a1b1944ffa909101819055609880549192909161139c908490612cfc565b90915550506097546113b9906113b490600190612d67565b61176a565b6097547f73edde8f56b9fcbdb5ccd6ea953f2d9710054e59208ebe94fcddb86321012c029082906113ec90600190612d67565b6040805183516001600160a01b031681526020938401519381019390935282015260600160405180910390a150565b6065546001600160a01b031633146114455760405162461bcd60e51b815260040161046d90612c9b565b6001600160a01b0381166114aa5760405162461bcd60e51b815260206004820152602660248201527f4f776e61626c653a206e6577206f776e657220697320746865207a65726f206160448201526564647265737360d01b606482015260840161046d565b61062a81611f97565b6000805460405163b5af090f60e01b81526001600160a01b0385811660048301529091169063b5af090f90602401602060405180830381865afa1580156114fe573d6000803e3d6000fd5b505050506040513d601f19601f820116820180604052508101906115229190612de7565b6115665760405162461bcd60e51b8152602060048201526015602482015274155b9cdd5c1c1bdc9d1959081d1bdad95b881bdd5d605a1b604482015260640161046d565b600061157160355490565b905061157d338461216f565b60005b6097548110156115e0576115c2609782815481106115a0576115a0612cd0565b60009182526020909120600290910201546001600160a01b03168686856122ba565b6115cc9084612cfc565b9250806115d881612d14565b915050611580565b506115f56001600160a01b0385163384612398565b604080513381526001600160a01b03861660208201529081018390527f2717ead6b9200dd235aad468c9809ea400fe33ac69b5bfaa6d3e90fc922b63989060600160405180910390a15092915050565b6001600160a01b0383166116a75760405162461bcd60e51b8152602060048201526024808201527f45524332303a20617070726f76652066726f6d20746865207a65726f206164646044820152637265737360e01b606482015260840161046d565b6001600160a01b0382166117085760405162461bcd60e51b815260206004820152602260248201527f45524332303a20617070726f766520746f20746865207a65726f206164647265604482015261737360f01b606482015260840161046d565b6001600160a01b0383811660008181526034602090815260408083209487168084529482529182902085905590518481527f8c5be1e5ebec7d5bd14f71427d1e84f3dd0314c0f7b2291e5b200ac8c7c3b92591015b60405180910390a3505050565b600080611775610db8565b9150915060006098546097858154811061179157611791612cd0565b906000526020600020906002020160010154836117ae9190612e04565b6117b89190612e23565b90508284815181106117cc576117cc612cd0565b60200260200101518111156118675760008385815181106117ef576117ef612cd0565b6020026020010151826118029190612d67565b9050600084868151811061181857611818612cd0565b60200260200101518461182b9190612d67565b905060005b60975481101561185f5786811461184d5761184d81888585611fe9565b8061185781612d14565b915050611830565b505050611901565b82848151811061187957611879612cd0565b60200260200101518261188c9190612d67565b915060005b60975481101561100e578481146118ef576118c785828684815181106118b9576118b9612cd0565b602002602001015186611fe9565b8381815181106118d9576118d9612cd0565b6020026020010151836118ec9190612d67565b92505b806118f981612d14565b915050611891565b50505050565b600061191384846111f7565b90506000198114611901578181101561196e5760405162461bcd60e51b815260206004820152601d60248201527f45524332303a20696e73756666696369656e7420616c6c6f77616e6365000000604482015260640161046d565b6119018484848403611645565b6001600160a01b0383166119df5760405162461bcd60e51b815260206004820152602560248201527f45524332303a207472616e736665722066726f6d20746865207a65726f206164604482015264647265737360d81b606482015260840161046d565b6001600160a01b038216611a415760405162461bcd60e51b815260206004820152602360248201527f45524332303a207472616e7366657220746f20746865207a65726f206164647260448201526265737360e81b606482015260840161046d565b6001600160a01b03831660009081526033602052604090205481811015611ab95760405162461bcd60e51b815260206004820152602660248201527f45524332303a207472616e7366657220616d6f756e7420657863656564732062604482015265616c616e636560d01b606482015260840161046d565b6001600160a01b03808516600090815260336020526040808220858503905591851681529081208054849290611af0908490612cfc565b92505081905550826001600160a01b0316846001600160a01b03167fddf252ad1be2c89b69c2b068fc378daa952ba7f163c4a11628f55a4df523b3ef84604051611b3c91815260200190565b60405180910390a3611901565b60008054600160a81b900460ff1615611b92578160ff166001148015611b6e5750303b155b611b8a5760405162461bcd60e51b815260040161046d90612e45565b506000919050565b60005460ff808416600160a01b9092041610611bc05760405162461bcd60e51b815260040161046d90612e45565b506000805460ff909216600160a01b0260ff60a01b19909216919091179055600190565b600054600160a81b900460ff16611c0d5760405162461bcd60e51b815260040161046d90612e93565b610db66123c8565b600054600160a81b900460ff16611c3e5760405162461bcd60e51b815260040161046d90612e93565b611c4882826123fa565b5050565b6040516001600160a01b03808516602483015283166044820152606481018290526119019085906323b872dd60e01b906084015b60408051601f198184030181529190526020810180516001600160e01b03166001600160e01b03199093169290921790915261244a565b600080546040516308b3f14f60e41b81526001600160a01b03868116600483015283921690638b3f14f090602401602060405180830381865afa158015611d02573d6000803e3d6000fd5b505050506040513d601f19601f82011682018060405250810190611d269190612d94565b600080546040516001600160a01b039182166024820152888216604482015290871660648201526084810186905291925090611dab90630284c3f560e01b9060a4015b60408051601f198184030181529190526020810180516001600160e01b03166001600160e01b0319909316929092179091526001600160a01b0384169061251c565b905080806020019051810190611dc19190612ede565b9695505050505050565b6001600160a01b038216611e215760405162461bcd60e51b815260206004820152601f60248201527f45524332303a206d696e7420746f20746865207a65726f206164647265737300604482015260640161046d565b8060356000828254611e339190612cfc565b90915550506001600160a01b03821660009081526033602052604081208054839290611e60908490612cfc565b90915550506040518181526001600160a01b038316906000907fddf252ad1be2c89b69c2b068fc378daa952ba7f163c4a11628f55a4df523b3ef9060200160405180910390a35050565b600080546040516308b3f14f60e41b81526001600160a01b03848116600483015283921690638b3f14f090602401602060405180830381865afa158015611ef5573d6000803e3d6000fd5b505050506040513d601f19601f82011682018060405250810190611f199190612d94565b600054604051631c40341760e21b81526001600160a01b0391821660048201528582166024820152306044820152919250821690637100d05c90606401602060405180830381865afa158015611f73573d6000803e3d6000fd5b505050506040513d601f19601f8201168201806040525081019061064c9190612ede565b606580546001600160a01b038381166001600160a01b0319831681179093556040519116919082907f8be0079c531659141344cd1fd0a4f28419497f9722a3daafe3b4186f6b6457e090600090a35050565b6000611ff4846111c0565b60008151811061200657612006612cd0565b60200260200101519050600061204a6097878154811061202857612028612cd0565b60009182526020909120600290910201546001600160a01b03168386866122ba565b90506120836097868154811061206257612062612cd0565b60009182526020909120600290910201546001600160a01b03168383611cb7565b50505050505050565b600080546040516308b3f14f60e41b81526001600160a01b038481166004830152606093921690638b3f14f090602401602060405180830381865afa1580156120d9573d6000803e3d6000fd5b505050506040513d601f19601f820116820180604052508101906120fd9190612d94565b604051634e89a71160e01b81526001600160a01b03858116600483015291925090821690634e89a71190602401600060405180830381865afa158015612147573d6000803e3d6000fd5b505050506040513d6000823e601f3d908101601f1916820160405261064c9190810190612ef7565b6001600160a01b0382166121cf5760405162461bcd60e51b815260206004820152602160248201527f45524332303a206275726e2066726f6d20746865207a65726f206164647265736044820152607360f81b606482015260840161046d565b6001600160a01b038216600090815260336020526040902054818110156122435760405162461bcd60e51b815260206004820152602260248201527f45524332303a206275726e20616d6f756e7420657863656564732062616c616e604482015261636560f01b606482015260840161046d565b6001600160a01b0383166000908152603360205260408120838303905560358054849290612272908490612d67565b90915550506040518281526000906001600160a01b038516907fddf252ad1be2c89b69c2b068fc378daa952ba7f163c4a11628f55a4df523b3ef9060200161175d565b505050565b600080546040516308b3f14f60e41b81526001600160a01b03878116600483015283921690638b3f14f090602401602060405180830381865afa158015612305573d6000803e3d6000fd5b505050506040513d601f19601f820116820180604052508101906123299190612d94565b600080546040516001600160a01b039182166024820152898216604482015290881660648201526084810187905260a48101869052919250906123779063097da6d360e41b9060c401611d69565b90508080602001905181019061238d9190612ede565b979650505050505050565b6040516001600160a01b0383166024820152604481018290526122b590849063a9059cbb60e01b90606401611c80565b600054600160a81b900460ff166123f15760405162461bcd60e51b815260040161046d90612e93565b610db633611f97565b600054600160a81b900460ff166124235760405162461bcd60e51b815260040161046d90612e93565b8151612436906036906020850190612786565b5080516122b5906037906020840190612786565b600061249f826040518060400160405280602081526020017f5361666545524332303a206c6f772d6c6576656c2063616c6c206661696c6564815250856001600160a01b03166125419092919063ffffffff16565b8051909150156122b557808060200190518101906124bd9190612de7565b6122b55760405162461bcd60e51b815260206004820152602a60248201527f5361666545524332303a204552433230206f7065726174696f6e20646964206e6044820152691bdd081cdd58d8d9595960b21b606482015260840161046d565b606061064c8383604051806060016040528060278152602001612fc660279139612558565b6060612550848460008561262b565b949350505050565b60606001600160a01b0384163b6125c05760405162461bcd60e51b815260206004820152602660248201527f416464726573733a2064656c65676174652063616c6c20746f206e6f6e2d636f6044820152651b9d1c9858dd60d21b606482015260840161046d565b600080856001600160a01b0316856040516125db9190612fa9565b600060405180830381855af49150503d8060008114612616576040519150601f19603f3d011682016040523d82523d6000602084013e61261b565b606091505b5091509150611dc182828661274d565b60608247101561268c5760405162461bcd60e51b815260206004820152602660248201527f416464726573733a20696e73756666696369656e742062616c616e636520666f6044820152651c8818d85b1b60d21b606482015260840161046d565b6001600160a01b0385163b6126e35760405162461bcd60e51b815260206004820152601d60248201527f416464726573733a2063616c6c20746f206e6f6e2d636f6e7472616374000000604482015260640161046d565b600080866001600160a01b031685876040516126ff9190612fa9565b60006040518083038185875af1925050503d806000811461273c576040519150601f19603f3d011682016040523d82523d6000602084013e612741565b606091505b509150915061238d8282865b6060831561275c57508161064c565b82511561276c5782518084602001fd5b8160405162461bcd60e51b815260040161046d91906128c0565b82805461279290612d2d565b90600052602060002090601f0160209004810192826127b457600085556127fa565b82601f106127cd57805160ff19168380011785556127fa565b828001600101855582156127fa579182015b828111156127fa5782518255916020019190600101906127df565b5061280692915061280a565b5090565b5b80821115612806576000815560010161280b565b6000806020838503121561283257600080fd5b823567ffffffffffffffff8082111561284a57600080fd5b818501915085601f83011261285e57600080fd5b81358181111561286d57600080fd5b8660208260051b850101111561288257600080fd5b60209290920196919550909350505050565b60005b838110156128af578181015183820152602001612897565b838111156119015750506000910152565b60208152600082518060208401526128df816040850160208701612894565b601f01601f19169190910160400192915050565b6001600160a01b038116811461062a57600080fd5b6000806040838503121561291b57600080fd5b8235612926816128f3565b946020939093013593505050565b60006020828403121561294657600080fd5b5035919050565b60008060006060848603121561296257600080fd5b833561296d816128f3565b9250602084013561297d816128f3565b929592945050506040919091013590565b60008083601f8401126129a057600080fd5b50813567ffffffffffffffff8111156129b857600080fd5b6020830191508360208285010111156129d057600080fd5b9250929050565b60008060008060008060006080888a0312156129f257600080fd5b873567ffffffffffffffff80821115612a0a57600080fd5b612a168b838c0161298e565b909950975060208a0135915080821115612a2f57600080fd5b612a3b8b838c0161298e565b909750955060408a01359150612a50826128f3565b90935060608901359080821115612a6657600080fd5b818a0191508a601f830112612a7a57600080fd5b813581811115612a8957600080fd5b8b60208260061b8501011115612a9e57600080fd5b60208301945080935050505092959891949750929550565b600060208284031215612ac857600080fd5b813561064c816128f3565b604080825283519082018190526000906020906060840190828701845b82811015612b0c57815184529284019290840190600101612af0565b50505092019290925292915050565b801515811461062a57600080fd5b600080600080600060a08688031215612b4157600080fd5b853594506020860135935060408601359250606086013591506080860135612b6881612b1b565b809150509295509295909350565b6020808252825182820181905260009190848201906040850190845b81811015612bb75783516001600160a01b031683529284019291840191600101612b92565b50909695505050505050565b60008060408385031215612bd657600080fd5b8235612be1816128f3565b91506020830135612bf1816128f3565b809150509250929050565b634e487b7160e01b600052604160045260246000fd5b604051601f8201601f1916810167ffffffffffffffff81118282101715612c3b57612c3b612bfc565b604052919050565b600060408284031215612c5557600080fd5b6040516040810181811067ffffffffffffffff82111715612c7857612c78612bfc565b6040528235612c86816128f3565b81526020928301359281019290925250919050565b6020808252818101527f4f776e61626c653a2063616c6c6572206973206e6f7420746865206f776e6572604082015260600190565b634e487b7160e01b600052603260045260246000fd5b634e487b7160e01b600052601160045260246000fd5b60008219821115612d0f57612d0f612ce6565b500190565b600060018201612d2657612d26612ce6565b5060010190565b600181811c90821680612d4157607f821691505b602082108103612d6157634e487b7160e01b600052602260045260246000fd5b50919050565b600082821015612d7957612d79612ce6565b500390565b634e487b7160e01b600052603160045260246000fd5b600060208284031215612da657600080fd5b815161064c816128f3565b8135612dbc816128f3565b81546001600160a01b0319166001600160a01b03919091161781556020919091013560019190910155565b600060208284031215612df957600080fd5b815161064c81612b1b565b6000816000190483118215151615612e1e57612e1e612ce6565b500290565b600082612e4057634e487b7160e01b600052601260045260246000fd5b500490565b6020808252602e908201527f496e697469616c697a61626c653a20636f6e747261637420697320616c72656160408201526d191e481a5b9a5d1a585b1a5e995960921b606082015260800190565b6020808252602b908201527f496e697469616c697a61626c653a20636f6e7472616374206973206e6f74206960408201526a6e697469616c697a696e6760a81b606082015260800190565b600060208284031215612ef057600080fd5b5051919050565b60006020808385031215612f0a57600080fd5b825167ffffffffffffffff80821115612f2257600080fd5b818501915085601f830112612f3657600080fd5b815181811115612f4857612f48612bfc565b8060051b9150612f59848301612c12565b8181529183018401918481019088841115612f7357600080fd5b938501935b83851015612f9d5784519250612f8d836128f3565b8282529385019390850190612f78565b98975050505050505050565b60008251612fbb818460208701612894565b919091019291505056fe416464726573733a206c6f772d6c6576656c2064656c65676174652063616c6c206661696c6564a26469706673582212200330163af0e2fe70573a4c3727c7500c175c40ec1b613c3ea1e89ef0c3c5d76064736f6c634300080d0033",
  "devdoc": {
    "kind": "dev",
    "methods": {
      "allowance(address,address)": {
        "details": "See {IERC20-allowance}."
      },
      "approve(address,uint256)": {
        "details": "See {IERC20-approve}. NOTE: If `amount` is the maximum `uint256`, the allowance is not updated on `transferFrom`. This is semantically equivalent to an infinite approval. Requirements: - `spender` cannot be the zero address."
      },
      "balanceOf(address)": {
        "details": "See {IERC20-balanceOf}."
      },
      "decimals()": {
        "details": "Returns the number of decimals used to get its user representation. For example, if `decimals` equals `2`, a balance of `505` tokens should be displayed to a user as `5.05` (`505 / 10 ** 2`). Tokens usually opt for a value of 18, imitating the relationship between Ether and Wei. This is the value {ERC20} uses, unless this function is overridden; NOTE: This information is only used for _display_ purposes: it in no way affects any of the arithmetic of the contract, including {IERC20-balanceOf} and {IERC20-transfer}."
      },
      "decreaseAllowance(address,uint256)": {
        "details": "Atomically decreases the allowance granted to `spender` by the caller. This is an alternative to {approve} that can be used as a mitigation for problems described in {IERC20-approve}. Emits an {Approval} event indicating the updated allowance. Requirements: - `spender` cannot be the zero address. - `spender` must have allowance for the caller of at least `subtractedValue`."
      },
      "increaseAllowance(address,uint256)": {
        "details": "Atomically increases the allowance granted to `spender` by the caller. This is an alternative to {approve} that can be used as a mitigation for problems described in {IERC20-approve}. Emits an {Approval} event indicating the updated allowance. Requirements: - `spender` cannot be the zero address."
      },
      "name()": {
        "details": "Returns the name of the token."
      },
      "owner()": {
        "details": "Returns the address of the current owner."
      },
      "renounceOwnership()": {
        "details": "Leaves the contract without owner. It will not be possible to call `onlyOwner` functions anymore. Can only be called by the current owner. NOTE: Renouncing ownership will leave the contract without an owner, thereby removing any functionality that is only available to the owner."
      },
      "symbol()": {
        "details": "Returns the symbol of the token, usually a shorter version of the name."
      },
      "totalSupply()": {
        "details": "See {IERC20-totalSupply}."
      },
      "transfer(address,uint256)": {
        "details": "See {IERC20-transfer}. Requirements: - `to` cannot be the zero address. - the caller must have a balance of at least `amount`."
      },
      "transferFrom(address,address,uint256)": {
        "details": "See {IERC20-transferFrom}. Emits an {Approval} event indicating the updated allowance. This is not required by the EIP. See the note at the beginning of {ERC20}. NOTE: Does not update the allowance if the current allowance is the maximum `uint256`. Requirements: - `from` and `to` cannot be the zero address. - `from` must have a balance of at least `amount`. - the caller must have allowance for ``from``'s tokens of at least `amount`."
      },
      "transferOwnership(address)": {
        "details": "Transfers ownership of the contract to a new account (`newOwner`). Can only be called by the current owner."
      }
    },
    "version": 1
  },
  "userdoc": {
    "kind": "user",
    "methods": {},
    "version": 1
  },
  "storageLayout": {
    "storage": [
      {
        "astId": 5291,
        "contract": "contracts/VaultIndex.sol:VaultIndex",
        "label": "registry",
        "offset": 0,
        "slot": "0",
        "type": "t_contract(IRegistry)6603"
      },
      {
        "astId": 176,
        "contract": "contracts/VaultIndex.sol:VaultIndex",
        "label": "_initialized",
        "offset": 20,
        "slot": "0",
        "type": "t_uint8"
      },
      {
        "astId": 179,
        "contract": "contracts/VaultIndex.sol:VaultIndex",
        "label": "_initializing",
        "offset": 21,
        "slot": "0",
        "type": "t_bool"
      },
      {
        "astId": 1309,
        "contract": "contracts/VaultIndex.sol:VaultIndex",
        "label": "__gap",
        "offset": 0,
        "slot": "1",
        "type": "t_array(t_uint256)50_storage"
      },
      {
        "astId": 330,
        "contract": "contracts/VaultIndex.sol:VaultIndex",
        "label": "_balances",
        "offset": 0,
        "slot": "51",
        "type": "t_mapping(t_address,t_uint256)"
      },
      {
        "astId": 336,
        "contract": "contracts/VaultIndex.sol:VaultIndex",
        "label": "_allowances",
        "offset": 0,
        "slot": "52",
        "type": "t_mapping(t_address,t_mapping(t_address,t_uint256))"
      },
      {
        "astId": 338,
        "contract": "contracts/VaultIndex.sol:VaultIndex",
        "label": "_totalSupply",
        "offset": 0,
        "slot": "53",
        "type": "t_uint256"
      },
      {
        "astId": 340,
        "contract": "contracts/VaultIndex.sol:VaultIndex",
        "label": "_name",
        "offset": 0,
        "slot": "54",
        "type": "t_string_storage"
      },
      {
        "astId": 342,
        "contract": "contracts/VaultIndex.sol:VaultIndex",
        "label": "_symbol",
        "offset": 0,
        "slot": "55",
        "type": "t_string_storage"
      },
      {
        "astId": 921,
        "contract": "contracts/VaultIndex.sol:VaultIndex",
        "label": "__gap",
        "offset": 0,
        "slot": "56",
        "type": "t_array(t_uint256)45_storage"
      },
      {
        "astId": 56,
        "contract": "contracts/VaultIndex.sol:VaultIndex",
        "label": "_owner",
        "offset": 0,
        "slot": "101",
        "type": "t_address"
      },
      {
        "astId": 168,
        "contract": "contracts/VaultIndex.sol:VaultIndex",
        "label": "__gap",
        "offset": 0,
        "slot": "102",
        "type": "t_array(t_uint256)49_storage"
      },
      {
        "astId": 5609,
        "contract": "contracts/VaultIndex.sol:VaultIndex",
        "label": "components",
        "offset": 0,
        "slot": "151",
        "type": "t_array(t_struct(Component)6611_storage)dyn_storage"
      },
      {
        "astId": 5611,
        "contract": "contracts/VaultIndex.sol:VaultIndex",
        "label": "totalWeight",
        "offset": 0,
        "slot": "152",
        "type": "t_uint256"
      }
    ],
    "types": {
      "t_address": {
        "encoding": "inplace",
        "label": "address",
        "numberOfBytes": "20"
      },
      "t_array(t_struct(Component)6611_storage)dyn_storage": {
        "base": "t_struct(Component)6611_storage",
        "encoding": "dynamic_array",
        "label": "struct IVaultIndex.Component[]",
        "numberOfBytes": "32"
      },
      "t_array(t_uint256)45_storage": {
        "base": "t_uint256",
        "encoding": "inplace",
        "label": "uint256[45]",
        "numberOfBytes": "1440"
      },
      "t_array(t_uint256)49_storage": {
        "base": "t_uint256",
        "encoding": "inplace",
        "label": "uint256[49]",
        "numberOfBytes": "1568"
      },
      "t_array(t_uint256)50_storage": {
        "base": "t_uint256",
        "encoding": "inplace",
        "label": "uint256[50]",
        "numberOfBytes": "1600"
      },
      "t_bool": {
        "encoding": "inplace",
        "label": "bool",
        "numberOfBytes": "1"
      },
      "t_contract(IRegistry)6603": {
        "encoding": "inplace",
        "label": "contract IRegistry",
        "numberOfBytes": "20"
      },
      "t_mapping(t_address,t_mapping(t_address,t_uint256))": {
        "encoding": "mapping",
        "key": "t_address",
        "label": "mapping(address => mapping(address => uint256))",
        "numberOfBytes": "32",
        "value": "t_mapping(t_address,t_uint256)"
      },
      "t_mapping(t_address,t_uint256)": {
        "encoding": "mapping",
        "key": "t_address",
        "label": "mapping(address => uint256)",
        "numberOfBytes": "32",
        "value": "t_uint256"
      },
      "t_string_storage": {
        "encoding": "bytes",
        "label": "string",
        "numberOfBytes": "32"
      },
      "t_struct(Component)6611_storage": {
        "encoding": "inplace",
        "label": "struct IVaultIndex.Component",
        "members": [
          {
            "astId": 6608,
            "contract": "contracts/VaultIndex.sol:VaultIndex",
            "label": "vault",
            "offset": 0,
            "slot": "0",
            "type": "t_address"
          },
          {
            "astId": 6610,
            "contract": "contracts/VaultIndex.sol:VaultIndex",
            "label": "targetWeight",
            "offset": 0,
            "slot": "1",
            "type": "t_uint256"
          }
        ],
        "numberOfBytes": "64"
      },
      "t_uint256": {
        "encoding": "inplace",
        "label": "uint256",
        "numberOfBytes": "32"
      },
      "t_uint8": {
        "encoding": "inplace",
        "label": "uint8",
        "numberOfBytes": "1"
      }
    }
  }
}