{
  "address": "0xa13373fd51B44C5174CAb8C829012d78717c47AE",
  "abi": [
    {
      "inputs": [],
      "name": "PIPELINE_NAME",
      "outputs": [
        {
          "internalType": "string",
          "name": "",
          "type": "string"
        }
      ],
      "stateMutability": "view",
      "type": "function"
    },
    {
      "inputs": [
        {
          "internalType": "contract IRegistry",
          "name": "registry",
          "type": "address"
        },
        {
          "internalType": "address",
          "name": "vault",
          "type": "address"
        },
        {
          "internalType": "address",
          "name": "tokenIn",
          "type": "address"
        },
        {
          "internalType": "uint256",
          "name": "amountIn",
          "type": "uint256"
        }
      ],
      "name": "deposit",
      "outputs": [
        {
          "internalType": "uint256",
          "name": "price",
          "type": "uint256"
        }
      ],
      "stateMutability": "nonpayable",
      "type": "function"
    },
    {
      "inputs": [
        {
          "internalType": "contract IRegistry",
          "name": "registry",
          "type": "address"
        },
        {
          "internalType": "address",
          "name": "vault",
          "type": "address"
        },
        {
          "internalType": "address",
          "name": "account",
          "type": "address"
        }
      ],
      "name": "getPrice",
      "outputs": [
        {
          "internalType": "uint256",
          "name": "",
          "type": "uint256"
        }
      ],
      "stateMutability": "view",
      "type": "function"
    },
    {
      "inputs": [
        {
          "internalType": "address",
          "name": "vault",
          "type": "address"
        }
      ],
      "name": "getUnderlying",
      "outputs": [
        {
          "internalType": "address[]",
          "name": "tokens",
          "type": "address[]"
        }
      ],
      "stateMutability": "pure",
      "type": "function"
    },
    {
      "inputs": [
        {
          "internalType": "contract IRegistry",
          "name": "registry",
          "type": "address"
        },
        {
          "internalType": "address",
          "name": "vault",
          "type": "address"
        },
        {
          "internalType": "address",
          "name": "tokenOut",
          "type": "address"
        },
        {
          "internalType": "uint256",
          "name": "shareNum",
          "type": "uint256"
        },
        {
          "internalType": "uint256",
          "name": "shareDenom",
          "type": "uint256"
        }
      ],
      "name": "withdraw",
      "outputs": [
        {
          "internalType": "uint256",
          "name": "amountOut",
          "type": "uint256"
        }
      ],
      "stateMutability": "nonpayable",
      "type": "function"
    }
  ],
  "transactionHash": "0x4bc7c698282237dbdb27458d741720f09bc8583f825bf90083f2482509b74a9c",
  "args": [],
  "numDeployments": 1,
  "solcInputHash": "d3a545f609135317a3bfe4c2cf817d7c",
  "bytecode": "0x608060405234801561001057600080fd5b506111da806100206000396000f3fe608060405234801561001057600080fd5b50600436106100575760003560e01c80630284c3f51461005c5780634e89a711146100825780635cbc9b8d146100a25780637100d05c146100da57806397da6d30146100ed575b600080fd5b61006f61006a366004610b19565b610100565b6040519081526020015b60405180910390f35b610095610090366004610b6a565b610159565b6040516100799190610bd2565b6100cd6040518060400160405280600c81526020016b50757265506970656c696e6560a01b81525081565b6040516100799190610c15565b61006f6100e8366004610c48565b6101b4565b61006f6100fb366004610c93565b610242565b600080846001600160a01b0316846001600160a01b031614610138576101316001600160a01b03871685878661030c565b905061013b565b50815b61014f6001600160a01b0387168683610419565b9695505050505050565b60408051600180825281830190925260609160208083019080368337019050509050818160008151811061018f5761018f610d04565b60200260200101906001600160a01b031690816001600160a01b031681525050919050565b6040516370a0823160e01b81526001600160a01b03828116600483015260009182918516906370a0823190602401602060405180830381865afa1580156101ff573d6000803e3d6000fd5b505050506040513d601f19601f820116820180604052508101906102239190610d1a565b90506102396001600160a01b0386168583610419565b95945050505050565b6040516370a0823160e01b81523060048201526000908190839085906001600160a01b038916906370a0823190602401602060405180830381865afa15801561028f573d6000803e3d6000fd5b505050506040513d601f19601f820116820180604052508101906102b39190610d1a565b6102bd9190610d49565b6102c79190610d68565b9050856001600160a01b0316856001600160a01b0316146102fe576102f76001600160a01b03881687878461030c565b9150610302565b8091505b5095945050505050565b604051634b59de7960e01b81526001600160a01b03848116600483015283811660248301526000918291871690634b59de7990604401600060405180830381865afa15801561035f573d6000803e3d6000fd5b505050506040513d6000823e601f3d908101601f191682016040526103879190810190610de4565b905060018151600181111561039e5761039e610eb8565b146104105761014f866001600160a01b0316632f672d876040518163ffffffff1660e01b8152600401602060405180830381865afa1580156103e4573d6000803e3d6000fd5b505050506040513d601f19601f820116820180604052508101906104089190610ece565b8686866104ae565b50949350505050565b6000826001600160a01b031663313ce5676040518163ffffffff1660e01b8152600401602060405180830381865afa158015610459573d6000803e3d6000fd5b505050506040513d601f19601f8201168201806040525081019061047d9190610eeb565b61048890600a610ff2565b6104928585610801565b61049c9084610d49565b6104a69190610d68565b949350505050565b604080516002808252606082018352600092839291906020830190803683370190505090508484826000815181106104e8576104e8610d04565b602002602001018360018151811061050257610502610d04565b6001600160a01b03938416602091820292909201015291811690915260405163d06ca61f60e01b815260009188169063d06ca61f906105479087908690600401611001565b600060405180830381865afa92505050801561058557506040513d6000823e601f3d908101601f19168201604052610582919081019061101a565b60015b156105b557806001825161059991906110c0565b815181106105a9576105a9610d04565b60200260200101519150505b60408051600380825260808201909252600091829190602082016060803683370190505090506000896001600160a01b031663ad5c46486040518163ffffffff1660e01b8152600401602060405180830381865afa15801561061b573d6000803e3d6000fd5b505050506040513d601f19601f8201168201806040525081019061063f9190610ece565b9050806001600160a01b0316896001600160a01b0316141580156106755750806001600160a01b0316886001600160a01b031614155b1561077a578881898460008151811061069057610690610d04565b60200260200101856001815181106106aa576106aa610d04565b60200260200101866002815181106106c4576106c4610d04565b6001600160a01b039485166020918202929092010152928216909252918216905260405163d06ca61f60e01b8152908b169063d06ca61f9061070c908a908690600401611001565b600060405180830381865afa92505050801561074a57506040513d6000823e601f3d908101601f19168201604052610747919081019061101a565b60015b1561077a57806001825161075e91906110c0565b8151811061076e5761076e610d04565b60200260200101519350505b60008411806107895750600083115b6107da5760405162461bcd60e51b815260206004820152601760248201527f4e6f207377617020726f75746520617661696c61626c6500000000000000000060448201526064015b60405180910390fd5b6107f38a8486116107eb57836107ed565b865b8961091f565b9a9950505050505050505050565b60405162b6d99560e71b81526001600160a01b0382811660048301526000918291851690635b6cca8090602401602060405180830381865afa15801561084b573d6000803e3d6000fd5b505050506040513d601f19601f8201168201806040525081019061086f9190610ece565b90506001600160a01b03811615610910576000816001600160a01b031663feaf968c6040518163ffffffff1660e01b815260040160a060405180830381865afa1580156108c0573d6000803e3d6000fd5b505050506040513d601f19601f820116820180604052508101906108e491906110f6565b50505091505060008112156108fe57600092505050610919565b61090781610aab565b92505050610919565b6305f5e1009150505b92915050565b60008260008151811061093457610934610d04565b602090810291909101015160405163095ea7b360e01b81526001600160a01b038681166004830152602482018590529091169063095ea7b3906044016020604051808303816000875af115801561098f573d6000803e3d6000fd5b505050506040513d601f19601f820116820180604052508101906109b39190611146565b506040516338ed173960e01b81526000906001600160a01b038616906338ed1739906109eb9086908590899030904290600401611168565b6000604051808303816000875af1158015610a0a573d6000803e3d6000fd5b505050506040513d6000823e601f3d908101601f19168201604052610a32919081019061101a565b90508060018251610a4391906110c0565b81518110610a5357610a53610d04565b6020026020010151915060008211610aa35760405162461bcd60e51b815260206004820152601360248201527243616e2774207377617020666f72207a65726f60681b60448201526064016107d1565b509392505050565b600080821215610afd5760405162461bcd60e51b815260206004820181905260248201527f53616665436173743a2076616c7565206d75737420626520706f73697469766560448201526064016107d1565b5090565b6001600160a01b0381168114610b1657600080fd5b50565b60008060008060808587031215610b2f57600080fd5b8435610b3a81610b01565b93506020850135610b4a81610b01565b92506040850135610b5a81610b01565b9396929550929360600135925050565b600060208284031215610b7c57600080fd5b8135610b8781610b01565b9392505050565b600081518084526020808501945080840160005b83811015610bc75781516001600160a01b031687529582019590820190600101610ba2565b509495945050505050565b602081526000610b876020830184610b8e565b60005b83811015610c00578181015183820152602001610be8565b83811115610c0f576000848401525b50505050565b6020815260008251806020840152610c34816040850160208701610be5565b601f01601f19169190910160400192915050565b600080600060608486031215610c5d57600080fd5b8335610c6881610b01565b92506020840135610c7881610b01565b91506040840135610c8881610b01565b809150509250925092565b600080600080600060a08688031215610cab57600080fd5b8535610cb681610b01565b94506020860135610cc681610b01565b93506040860135610cd681610b01565b94979396509394606081013594506080013592915050565b634e487b7160e01b600052604160045260246000fd5b634e487b7160e01b600052603260045260246000fd5b600060208284031215610d2c57600080fd5b5051919050565b634e487b7160e01b600052601160045260246000fd5b6000816000190483118215151615610d6357610d63610d33565b500290565b600082610d8557634e487b7160e01b600052601260045260246000fd5b500490565b6040805190810167ffffffffffffffff81118282101715610dad57610dad610cee565b60405290565b604051601f8201601f1916810167ffffffffffffffff81118282101715610ddc57610ddc610cee565b604052919050565b60006020808385031215610df757600080fd5b825167ffffffffffffffff80821115610e0f57600080fd5b9084019060408287031215610e2357600080fd5b610e2b610d8a565b825160028110610e3a57600080fd5b81528284015182811115610e4d57600080fd5b80840193505086601f840112610e6257600080fd5b825182811115610e7457610e74610cee565b610e86601f8201601f19168601610db3565b92508083528785828601011115610e9c57600080fd5b610eab81868501878701610be5565b5092830152509392505050565b634e487b7160e01b600052602160045260246000fd5b600060208284031215610ee057600080fd5b8151610b8781610b01565b600060208284031215610efd57600080fd5b815160ff81168114610b8757600080fd5b600181815b80851115610f49578160001904821115610f2f57610f2f610d33565b80851615610f3c57918102915b93841c9390800290610f13565b509250929050565b600082610f6057506001610919565b81610f6d57506000610919565b8160018114610f835760028114610f8d57610fa9565b6001915050610919565b60ff841115610f9e57610f9e610d33565b50506001821b610919565b5060208310610133831016604e8410600b8410161715610fcc575081810a610919565b610fd68383610f0e565b8060001904821115610fea57610fea610d33565b029392505050565b6000610b8760ff841683610f51565b8281526040602082015260006104a66040830184610b8e565b6000602080838503121561102d57600080fd5b825167ffffffffffffffff8082111561104557600080fd5b818501915085601f83011261105957600080fd5b81518181111561106b5761106b610cee565b8060051b915061107c848301610db3565b818152918301840191848101908884111561109657600080fd5b938501935b838510156110b45784518252938501939085019061109b565b98975050505050505050565b6000828210156110d2576110d2610d33565b500390565b805169ffffffffffffffffffff811681146110f157600080fd5b919050565b600080600080600060a0868803121561110e57600080fd5b611117866110d7565b945060208601519350604086015192506060860151915061113a608087016110d7565b90509295509295909350565b60006020828403121561115857600080fd5b81518015158114610b8757600080fd5b85815284602082015260a06040820152600061118760a0830186610b8e565b6001600160a01b039490941660608301525060800152939250505056fea26469706673582212203de51baaf764fdec63999d9d138b71f01d3f548a3f8079612f17b20d971b655d64736f6c634300080d0033",
  "devdoc": {
    "kind": "dev",
    "methods": {},
    "version": 1
  },
  "userdoc": {
    "kind": "user",
    "methods": {},
    "version": 1
  },
  "storageLayout": {
    "storage": [],
    "types": null
  }
}