{
  "address": "0x2Bb4942a798966d9d8583E400310721E20798661",
  "abi": [
    {
      "inputs": [
        {
          "internalType": "address",
          "name": "registry_",
          "type": "address"
        },
        {
          "internalType": "address",
          "name": "indexMaster_",
          "type": "address"
        }
      ],
      "stateMutability": "nonpayable",
      "type": "constructor"
    },
    {
      "anonymous": false,
      "inputs": [
        {
          "indexed": true,
          "internalType": "address",
          "name": "index",
          "type": "address"
        }
      ],
      "name": "IndexCreated",
      "type": "event"
    },
    {
      "inputs": [
        {
          "internalType": "string",
          "name": "name",
          "type": "string"
        },
        {
          "internalType": "string",
          "name": "symbol",
          "type": "string"
        },
        {
          "components": [
            {
              "internalType": "address",
              "name": "vault",
              "type": "address"
            },
            {
              "internalType": "uint96",
              "name": "targetWeight",
              "type": "uint96"
            }
          ],
          "internalType": "struct IVaultIndex.Component[]",
          "name": "components",
          "type": "tuple[]"
        }
      ],
      "name": "createIndex",
      "outputs": [
        {
          "internalType": "address",
          "name": "index",
          "type": "address"
        }
      ],
      "stateMutability": "nonpayable",
      "type": "function"
    },
    {
      "inputs": [],
      "name": "indexMaster",
      "outputs": [
        {
          "internalType": "address",
          "name": "",
          "type": "address"
        }
      ],
      "stateMutability": "view",
      "type": "function"
    },
    {
      "inputs": [],
      "name": "registry",
      "outputs": [
        {
          "internalType": "address",
          "name": "",
          "type": "address"
        }
      ],
      "stateMutability": "view",
      "type": "function"
    }
  ],
  "transactionHash": "0x502bc2a917e9d5204488fe0342d2f88a531451eccdf4c5d982f069f4568e5e0a",
  "args": [
    "0xBB03Cf9c317c130D109840c3F81A6eb6d1C91Ffe",
    "0x93C01f7204d97c8444Fa2cC943B09C21322DF061"
  ],
  "numDeployments": 1,
  "solcInputHash": "d926dd4491f51477086acd9f2ab9f278",
  "bytecode": "0x608060405234801561001057600080fd5b506040516104e03803806104e083398101604081905261002f9161007c565b600080546001600160a01b039384166001600160a01b031991821617909155600180549290931691161790556100af565b80516001600160a01b038116811461007757600080fd5b919050565b6000806040838503121561008f57600080fd5b61009883610060565b91506100a660208401610060565b90509250929050565b610422806100be6000396000f3fe608060405234801561001057600080fd5b50600436106100415760003560e01c806371ad28ac146100465780637b103999146100755780639130b4e814610088575b600080fd5b610059610054366004610248565b61009b565b6040516001600160a01b03909116815260200160405180910390f35b600054610059906001600160a01b031681565b600154610059906001600160a01b031681565b6001546000906100b3906001600160a01b031661015e565b604051632056b41360e01b81529091506001600160a01b03821690632056b413906100ee908a908a908a908a9033908b908b9060040161033a565b600060405180830381600087803b15801561010857600080fd5b505af115801561011c573d6000803e3d6000fd5b50506040516001600160a01b03841692507f55aca3d5e8fb9f865553e8daded233b5d3a97a8ac5bae7d88218a2263506f7629150600090a29695505050505050565b6000604051733d602d80600a3d3981f3363d3d373d3d3d363d7360601b81528260601b60148201526e5af43d82803e903d91602b57fd5bf360881b60288201526037816000f09150506001600160a01b0381166101fa5760405162461bcd60e51b8152602060048201526016602482015275115490cc4c4d8dce8818dc99585d194819985a5b195960521b604482015260640160405180910390fd5b919050565b60008083601f84011261021157600080fd5b50813567ffffffffffffffff81111561022957600080fd5b60208301915083602082850101111561024157600080fd5b9250929050565b6000806000806000806060878903121561026157600080fd5b863567ffffffffffffffff8082111561027957600080fd5b6102858a838b016101ff565b9098509650602089013591508082111561029e57600080fd5b6102aa8a838b016101ff565b909650945060408901359150808211156102c357600080fd5b818901915089601f8301126102d757600080fd5b8135818111156102e657600080fd5b8a60208260061b85010111156102fb57600080fd5b6020830194508093505050509295509295509295565b81835281816020850137506000828201602090810191909152601f909101601f19169091010190565b60808152600061034e60808301898b610311565b60208382038185015261036282898b610311565b6001600160a01b03888116604087810191909152868303606088015287835288945091830160005b888110156103da5785358381168082146103a357600080fd5b835250858501356bffffffffffffffffffffffff81168082146103c557600080fd5b8387015250948301949083019060010161038a565b509d9c5050505050505050505050505056fea2646970667358221220727e4692d6fb6b1c4d09bcda8471df635f83ffc5d119db77689161e65d7bf5c764736f6c634300080d0033",
  "devdoc": {
    "kind": "dev",
    "methods": {},
    "version": 1
  },
  "userdoc": {
    "kind": "user",
    "methods": {},
    "version": 1
  },
  "storageLayout": {
    "storage": [
      {
        "astId": 4782,
        "contract": "contracts/Factory.sol:Factory",
        "label": "registry",
        "offset": 0,
        "slot": "0",
        "type": "t_address"
      },
      {
        "astId": 4784,
        "contract": "contracts/Factory.sol:Factory",
        "label": "indexMaster",
        "offset": 0,
        "slot": "1",
        "type": "t_address"
      }
    ],
    "types": {
      "t_address": {
        "encoding": "inplace",
        "label": "address",
        "numberOfBytes": "20"
      }
    }
  }
}