{
  "address": "0x93C01f7204d97c8444Fa2cC943B09C21322DF061",
  "abi": [
    {
      "anonymous": false,
      "inputs": [
        {
          "indexed": true,
          "internalType": "address",
          "name": "owner",
          "type": "address"
        },
        {
          "indexed": true,
          "internalType": "address",
          "name": "spender",
          "type": "address"
        },
        {
          "indexed": false,
          "internalType": "uint256",
          "name": "value",
          "type": "uint256"
        }
      ],
      "name": "Approval",
      "type": "event"
    },
    {
      "anonymous": false,
      "inputs": [
        {
          "components": [
            {
              "internalType": "address",
              "name": "vault",
              "type": "address"
            },
            {
              "internalType": "uint96",
              "name": "targetWeight",
              "type": "uint96"
            }
          ],
          "indexed": false,
          "internalType": "struct IVaultIndex.Component",
          "name": "component",
          "type": "tuple"
        },
        {
          "indexed": false,
          "internalType": "uint256",
          "name": "order",
          "type": "uint256"
        }
      ],
      "name": "ComponentAdded",
      "type": "event"
    },
    {
      "anonymous": false,
      "inputs": [
        {
          "components": [
            {
              "internalType": "address",
              "name": "vault",
              "type": "address"
            },
            {
              "internalType": "uint96",
              "name": "targetWeight",
              "type": "uint96"
            }
          ],
          "indexed": false,
          "internalType": "struct IVaultIndex.Component",
          "name": "component",
          "type": "tuple"
        },
        {
          "indexed": false,
          "internalType": "uint256",
          "name": "order",
          "type": "uint256"
        }
      ],
      "name": "ComponentRemoved",
      "type": "event"
    },
    {
      "anonymous": false,
      "inputs": [
        {
          "indexed": false,
          "internalType": "address",
          "name": "account",
          "type": "address"
        },
        {
          "indexed": false,
          "internalType": "address",
          "name": "tokenIn",
          "type": "address"
        },
        {
          "indexed": false,
          "internalType": "uint256",
          "name": "amount",
          "type": "uint256"
        }
      ],
      "name": "Deposit",
      "type": "event"
    },
    {
      "anonymous": false,
      "inputs": [
        {
          "indexed": false,
          "internalType": "uint8",
          "name": "version",
          "type": "uint8"
        }
      ],
      "name": "Initialized",
      "type": "event"
    },
    {
      "anonymous": false,
      "inputs": [
        {
          "indexed": true,
          "internalType": "address",
          "name": "previousOwner",
          "type": "address"
        },
        {
          "indexed": true,
          "internalType": "address",
          "name": "newOwner",
          "type": "address"
        }
      ],
      "name": "OwnershipTransferred",
      "type": "event"
    },
    {
      "anonymous": false,
      "inputs": [
        {
          "indexed": true,
          "internalType": "address",
          "name": "from",
          "type": "address"
        },
        {
          "indexed": true,
          "internalType": "address",
          "name": "to",
          "type": "address"
        },
        {
          "indexed": false,
          "internalType": "uint256",
          "name": "value",
          "type": "uint256"
        }
      ],
      "name": "Transfer",
      "type": "event"
    },
    {
      "anonymous": false,
      "inputs": [
        {
          "indexed": false,
          "internalType": "address",
          "name": "account",
          "type": "address"
        },
        {
          "indexed": false,
          "internalType": "address",
          "name": "tokenOut",
          "type": "address"
        },
        {
          "indexed": false,
          "internalType": "uint256",
          "name": "amount",
          "type": "uint256"
        }
      ],
      "name": "Withdrawal",
      "type": "event"
    },
    {
      "inputs": [
        {
          "components": [
            {
              "internalType": "address",
              "name": "vault",
              "type": "address"
            },
            {
              "internalType": "uint96",
              "name": "targetWeight",
              "type": "uint96"
            }
          ],
          "internalType": "struct IVaultIndex.Component",
          "name": "component",
          "type": "tuple"
        }
      ],
      "name": "addComponent",
      "outputs": [],
      "stateMutability": "nonpayable",
      "type": "function"
    },
    {
      "inputs": [
        {
          "internalType": "address",
          "name": "owner",
          "type": "address"
        },
        {
          "internalType": "address",
          "name": "spender",
          "type": "address"
        }
      ],
      "name": "allowance",
      "outputs": [
        {
          "internalType": "uint256",
          "name": "",
          "type": "uint256"
        }
      ],
      "stateMutability": "view",
      "type": "function"
    },
    {
      "inputs": [
        {
          "internalType": "address",
          "name": "spender",
          "type": "address"
        },
        {
          "internalType": "uint256",
          "name": "amount",
          "type": "uint256"
        }
      ],
      "name": "approve",
      "outputs": [
        {
          "internalType": "bool",
          "name": "",
          "type": "bool"
        }
      ],
      "stateMutability": "nonpayable",
      "type": "function"
    },
    {
      "inputs": [
        {
          "internalType": "address",
          "name": "account",
          "type": "address"
        }
      ],
      "name": "balanceOf",
      "outputs": [
        {
          "internalType": "uint256",
          "name": "",
          "type": "uint256"
        }
      ],
      "stateMutability": "view",
      "type": "function"
    },
    {
      "inputs": [
        {
          "internalType": "uint256",
          "name": "",
          "type": "uint256"
        }
      ],
      "name": "components",
      "outputs": [
        {
          "internalType": "address",
          "name": "vault",
          "type": "address"
        },
        {
          "internalType": "uint96",
          "name": "targetWeight",
          "type": "uint96"
        }
      ],
      "stateMutability": "view",
      "type": "function"
    },
    {
      "inputs": [],
      "name": "decimals",
      "outputs": [
        {
          "internalType": "uint8",
          "name": "",
          "type": "uint8"
        }
      ],
      "stateMutability": "view",
      "type": "function"
    },
    {
      "inputs": [
        {
          "internalType": "address",
          "name": "spender",
          "type": "address"
        },
        {
          "internalType": "uint256",
          "name": "subtractedValue",
          "type": "uint256"
        }
      ],
      "name": "decreaseAllowance",
      "outputs": [
        {
          "internalType": "bool",
          "name": "",
          "type": "bool"
        }
      ],
      "stateMutability": "nonpayable",
      "type": "function"
    },
    {
      "inputs": [
        {
          "internalType": "contract IERC20",
          "name": "tokenIn",
          "type": "address"
        },
        {
          "internalType": "uint256",
          "name": "amount",
          "type": "uint256"
        }
      ],
      "name": "deposit",
      "outputs": [],
      "stateMutability": "nonpayable",
      "type": "function"
    },
    {
      "inputs": [
        {
          "internalType": "uint256",
          "name": "order",
          "type": "uint256"
        }
      ],
      "name": "getComponentPrice",
      "outputs": [
        {
          "internalType": "uint256",
          "name": "price",
          "type": "uint256"
        }
      ],
      "stateMutability": "view",
      "type": "function"
    },
    {
      "inputs": [],
      "name": "getComponentPrices",
      "outputs": [
        {
          "internalType": "uint256[]",
          "name": "prices",
          "type": "uint256[]"
        },
        {
          "internalType": "uint256",
          "name": "totalPrice",
          "type": "uint256"
        }
      ],
      "stateMutability": "view",
      "type": "function"
    },
    {
      "inputs": [
        {
          "internalType": "uint256",
          "name": "order",
          "type": "uint256"
        }
      ],
      "name": "getComponentUnderlying",
      "outputs": [
        {
          "internalType": "address[]",
          "name": "",
          "type": "address[]"
        }
      ],
      "stateMutability": "view",
      "type": "function"
    },
    {
      "inputs": [
        {
          "internalType": "address",
          "name": "spender",
          "type": "address"
        },
        {
          "internalType": "uint256",
          "name": "addedValue",
          "type": "uint256"
        }
      ],
      "name": "increaseAllowance",
      "outputs": [
        {
          "internalType": "bool",
          "name": "",
          "type": "bool"
        }
      ],
      "stateMutability": "nonpayable",
      "type": "function"
    },
    {
      "inputs": [
        {
          "internalType": "string",
          "name": "name_",
          "type": "string"
        },
        {
          "internalType": "string",
          "name": "symbol_",
          "type": "string"
        },
        {
          "internalType": "address",
          "name": "owner_",
          "type": "address"
        },
        {
          "components": [
            {
              "internalType": "address",
              "name": "vault",
              "type": "address"
            },
            {
              "internalType": "uint96",
              "name": "targetWeight",
              "type": "uint96"
            }
          ],
          "internalType": "struct IVaultIndex.Component[]",
          "name": "components_",
          "type": "tuple[]"
        }
      ],
      "name": "initialize",
      "outputs": [],
      "stateMutability": "nonpayable",
      "type": "function"
    },
    {
      "inputs": [],
      "name": "name",
      "outputs": [
        {
          "internalType": "string",
          "name": "",
          "type": "string"
        }
      ],
      "stateMutability": "view",
      "type": "function"
    },
    {
      "inputs": [],
      "name": "owner",
      "outputs": [
        {
          "internalType": "address",
          "name": "",
          "type": "address"
        }
      ],
      "stateMutability": "view",
      "type": "function"
    },
    {
      "inputs": [
        {
          "internalType": "uint256",
          "name": "orderDecrease",
          "type": "uint256"
        },
        {
          "internalType": "uint256",
          "name": "orderIncrease",
          "type": "uint256"
        },
        {
          "internalType": "uint256",
          "name": "shareNum",
          "type": "uint256"
        },
        {
          "internalType": "uint256",
          "name": "shareDenom",
          "type": "uint256"
        }
      ],
      "name": "rebalanceFromTo",
      "outputs": [],
      "stateMutability": "nonpayable",
      "type": "function"
    },
    {
      "inputs": [],
      "name": "registry",
      "outputs": [
        {
          "internalType": "contract IRegistry",
          "name": "",
          "type": "address"
        }
      ],
      "stateMutability": "view",
      "type": "function"
    },
    {
      "inputs": [
        {
          "internalType": "uint256",
          "name": "order",
          "type": "uint256"
        }
      ],
      "name": "removeComponent",
      "outputs": [],
      "stateMutability": "nonpayable",
      "type": "function"
    },
    {
      "inputs": [],
      "name": "renounceOwnership",
      "outputs": [],
      "stateMutability": "nonpayable",
      "type": "function"
    },
    {
      "inputs": [],
      "name": "symbol",
      "outputs": [
        {
          "internalType": "string",
          "name": "",
          "type": "string"
        }
      ],
      "stateMutability": "view",
      "type": "function"
    },
    {
      "inputs": [
        {
          "internalType": "uint256",
          "name": "order",
          "type": "uint256"
        }
      ],
      "name": "targetComponent",
      "outputs": [],
      "stateMutability": "nonpayable",
      "type": "function"
    },
    {
      "inputs": [],
      "name": "totalSupply",
      "outputs": [
        {
          "internalType": "uint256",
          "name": "",
          "type": "uint256"
        }
      ],
      "stateMutability": "view",
      "type": "function"
    },
    {
      "inputs": [],
      "name": "totalWeight",
      "outputs": [
        {
          "internalType": "uint96",
          "name": "",
          "type": "uint96"
        }
      ],
      "stateMutability": "view",
      "type": "function"
    },
    {
      "inputs": [
        {
          "internalType": "address",
          "name": "to",
          "type": "address"
        },
        {
          "internalType": "uint256",
          "name": "amount",
          "type": "uint256"
        }
      ],
      "name": "transfer",
      "outputs": [
        {
          "internalType": "bool",
          "name": "",
          "type": "bool"
        }
      ],
      "stateMutability": "nonpayable",
      "type": "function"
    },
    {
      "inputs": [
        {
          "internalType": "address",
          "name": "from",
          "type": "address"
        },
        {
          "internalType": "address",
          "name": "to",
          "type": "address"
        },
        {
          "internalType": "uint256",
          "name": "amount",
          "type": "uint256"
        }
      ],
      "name": "transferFrom",
      "outputs": [
        {
          "internalType": "bool",
          "name": "",
          "type": "bool"
        }
      ],
      "stateMutability": "nonpayable",
      "type": "function"
    },
    {
      "inputs": [
        {
          "internalType": "address",
          "name": "newOwner",
          "type": "address"
        }
      ],
      "name": "transferOwnership",
      "outputs": [],
      "stateMutability": "nonpayable",
      "type": "function"
    },
    {
      "inputs": [
        {
          "internalType": "contract IERC20",
          "name": "tokenOut",
          "type": "address"
        },
        {
          "internalType": "uint256",
          "name": "tokens",
          "type": "uint256"
        }
      ],
      "name": "withdraw",
      "outputs": [
        {
          "internalType": "uint256",
          "name": "amountOut",
          "type": "uint256"
        }
      ],
      "stateMutability": "nonpayable",
      "type": "function"
    }
  ],
  "transactionHash": "0x59bdd6b0eb5d2688888535b459ba2956c56e69a0d2a5370bc8363b1ed6aa785e",
  "args": [],
  "numDeployments": 1,
  "solcInputHash": "d926dd4491f51477086acd9f2ab9f278",
  "bytecode": "0x608060405234801561001057600080fd5b50612a44806100206000396000f3fe608060405234801561001057600080fd5b50600436106101a95760003560e01c8063715018a6116100f9578063a9059cbb11610097578063dd62ed3e11610071578063dd62ed3e146103e0578063e43a2356146103f3578063f2fde38b14610406578063f3fef3a31461041957600080fd5b8063a9059cbb14610373578063c5d574fe14610386578063d436794d146103c057600080fd5b8063932a1e5e116100d3578063932a1e5e1461031757806395d89b411461032d57806396c82e5714610335578063a457c2d71461036057600080fd5b8063715018a6146102d35780637b103999146102db5780638da5cb5b1461030657600080fd5b806323b872dd116101665780633950935111610140578063395093511461027157806347e7ef24146102845780636a7b93641461029757806370a08231146102aa57600080fd5b806323b872dd1461023c578063305f42791461024f578063313ce5671461026257600080fd5b806306fdde03146101ae578063095ea7b3146101cc5780630f4f71bb146101ef57806318160ddd146102045780631ff2bdd8146102165780632056b41314610229575b600080fd5b6101b661042c565b6040516101c3919061226e565b60405180910390f35b6101df6101da3660046122b6565b6104be565b60405190151581526020016101c3565b6102026101fd3660046122e2565b6104d6565b005b6035545b6040519081526020016101c3565b610202610224366004612357565b610515565b6102026102373660046123ff565b61065c565b6101df61024a3660046124de565b610898565b61020261025d3660046122e2565b6108be565b604051601281526020016101c3565b6101df61027f3660046122b6565b610aba565b6102026102923660046122b6565b610adc565b6102086102a53660046122e2565b610c41565b6102086102b836600461251f565b6001600160a01b031660009081526033602052604090205490565b610202610c79565b6000546102ee906001600160a01b031681565b6040516001600160a01b0390911681526020016101c3565b6065546001600160a01b03166102ee565b61031f610caf565b6040516101c392919061253c565b6101b6610d6d565b609854610348906001600160601b031681565b6040516001600160601b0390911681526020016101c3565b6101df61036e3660046122b6565b610d7c565b6101df6103813660046122b6565b610e02565b6103996103943660046122e2565b610e10565b604080516001600160a01b0390931683526001600160601b039091166020830152016101c3565b6103d36103ce3660046122e2565b610e4b565b6040516101c39190612584565b6102086103ee3660046125d1565b610e7d565b61020261040136600461260a565b610ea8565b61020261041436600461251f565b610ee4565b6102086104273660046122b6565b610f7c565b60606036805461043b9061263c565b80601f01602080910402602001604051908101604052809291908181526020018280546104679061263c565b80156104b45780601f10610489576101008083540402835291602001916104b4565b820191906000526020600020905b81548152906001019060200180831161049757829003601f168201915b5050505050905090565b6000336104cc818585611057565b5060019392505050565b6065546001600160a01b031633146105095760405162461bcd60e51b815260040161050090612676565b60405180910390fd5b6105128161117c565b50565b6065546001600160a01b0316331461053f5760405162461bcd60e51b815260040161050090612676565b609780546001810182556000918252825160208401516001600160601b03808216600160a01b026001600160a01b03909316929092177f354a83ed9988f79f6038d4c7a7dadbad8af32f4ad6df893e0e5807a1b1944ff990930192909255609880549293909290916105b3918591166126c1565b92506101000a8154816001600160601b0302191690836001600160601b031602179055506105f160016097805490506105ec91906126ec565b61117c565b6097547fbe1c3b778e7001ec441de39bd9c05c502dc84ba2c3c114efe858886fd141eaa5908290610624906001906126ec565b6040805183516001600160a01b031681526020938401516001600160601b03169381019390935282015260600160405180910390a150565b60006106686001611334565b90508015610684576000805460ff60a81b1916600160a81b1790555b61068c6113cf565b6106ff88888080601f01602080910402602001604051908101604052809392919081815260200183838082843760009201919091525050604080516020601f8c018190048102820181019092528a815292508a915089908190840183828082843760009201919091525061140092505050565b336001600160a01b0316637b1039996040518163ffffffff1660e01b8152600401602060405180830381865afa15801561073d573d6000803e3d6000fd5b505050506040513d601f19601f820116820180604052508101906107619190612703565b600080546001600160a01b0319166001600160a01b039290921691909117905561078a84610ee4565b6000805b838110156108205760978585838181106107aa576107aa612720565b835460018101855560009485526020909420604090910292909201929190910190506107d68282612736565b50508484828181106107ea576107ea612720565b90506040020160200160208101906108029190612778565b61080c90836126c1565b91508061081881612795565b91505061078e565b50609880546bffffffffffffffffffffffff19166001600160601b0392909216919091179055801561088e576000805460ff60a81b19169055604051600181527f7f26b83ff96e1f2b6a682f133852f6798a09c465da95921460cefb38474024989060200160405180910390a15b5050505050505050565b6000336108a6858285611437565b6108b18585856114ab565b60019150505b9392505050565b6065546001600160a01b031633146108e85760405162461bcd60e51b815260040161050090612676565b609781815481106108fb576108fb612720565b6000918252602082200154609880546001600160601b03600160a01b909304831693919261092b918591166127ae565b92506101000a8154816001600160601b0302191690836001600160601b0316021790555060006097828154811061096457610964612720565b9060005260206000200160000160146101000a8154816001600160601b0302191690836001600160601b0316021790555061099e8161117c565b7fca14bace8a4e6e55a3725a2afc43503056eacb40a15d39d352c3dc11585cd5c5609782815481106109d2576109d2612720565b9060005260206000200182604051610a0792919091546001600160a01b038116835260a01c6020830152604082015260600190565b60405180910390a160978054610a1f906001906126ec565b81548110610a2f57610a2f612720565b9060005260206000200160978281548110610a4c57610a4c612720565b600091825260209091208254910180546001600160a01b0319166001600160a01b03909216918217815591546001600160601b03600160a01b9182900416021790556097805480610a9f57610a9f6127d6565b60008281526020812082016000199081019190915501905550565b6000336104cc818585610acd8383610e7d565b610ad791906127ec565b611057565b6000610ae6610caf565b9150610aff90506001600160a01b038416333085611679565b6000805b609754811015610bb257610b9460978281548110610b2357610b23612720565b600091825260209091200154609854609780546001600160a01b039093169289926001600160601b0316919086908110610b5f57610b5f612720565b600091825260209091200154610b8590600160a01b90046001600160601b031689612804565b610b8f9190612823565b6116e4565b610b9e90836127ec565b915080610baa81612795565b915050610b03565b5081600003610bca57610bc533826117f8565b610bf2565b610bf2338383610bd960355490565b610be39190612804565b610bed9190612823565b6117f8565b604080513381526001600160a01b03861660208201529081018490527f5548c837ab068cf56a2c2479df0882a4922fd203edb7517321831d95078c5f629060600160405180910390a150505050565b6000610c7360978381548110610c5957610c59612720565b6000918252602090912001546001600160a01b03166118d7565b92915050565b6065546001600160a01b03163314610ca35760405162461bcd60e51b815260040161050090612676565b610cad60006119c4565b565b60975460609060009067ffffffffffffffff811115610cd057610cd06122fb565b604051908082528060200260200182016040528015610cf9578160200160208202803683370190505b50915060005b8251811015610d6857610d1181610c41565b838281518110610d2357610d23612720565b602002602001018181525050828181518110610d4157610d41612720565b602002602001015182610d5491906127ec565b915080610d6081612795565b915050610cff565b509091565b60606037805461043b9061263c565b60003381610d8a8286610e7d565b905083811015610dea5760405162461bcd60e51b815260206004820152602560248201527f45524332303a2064656372656173656420616c6c6f77616e63652062656c6f77604482015264207a65726f60d81b6064820152608401610500565b610df78286868403611057565b506001949350505050565b6000336104cc8185856114ab565b60978181548110610e2057600080fd5b6000918252602090912001546001600160a01b0381169150600160a01b90046001600160601b031682565b6060610c7360978381548110610e6357610e63612720565b6000918252602090912001546001600160a01b0316611a16565b6001600160a01b03918216600090815260346020908152604080832093909416825291909152205490565b6065546001600160a01b03163314610ed25760405162461bcd60e51b815260040161050090612676565b610ede84848484611af9565b50505050565b6065546001600160a01b03163314610f0e5760405162461bcd60e51b815260040161050090612676565b6001600160a01b038116610f735760405162461bcd60e51b815260206004820152602660248201527f4f776e61626c653a206e6577206f776e657220697320746865207a65726f206160448201526564647265737360d01b6064820152608401610500565b610512816119c4565b600080610f8860355490565b9050610f943384611b92565b60005b609754811015610ff257610fd460978281548110610fb757610fb7612720565b6000918252602090912001546001600160a01b0316868685611cdd565b610fde90846127ec565b925080610fea81612795565b915050610f97565b506110076001600160a01b0385163384611dbb565b604080513381526001600160a01b03861660208201529081018390527f2717ead6b9200dd235aad468c9809ea400fe33ac69b5bfaa6d3e90fc922b63989060600160405180910390a15092915050565b6001600160a01b0383166110b95760405162461bcd60e51b8152602060048201526024808201527f45524332303a20617070726f76652066726f6d20746865207a65726f206164646044820152637265737360e01b6064820152608401610500565b6001600160a01b03821661111a5760405162461bcd60e51b815260206004820152602260248201527f45524332303a20617070726f766520746f20746865207a65726f206164647265604482015261737360f01b6064820152608401610500565b6001600160a01b0383811660008181526034602090815260408083209487168084529482529182902085905590518481527f8c5be1e5ebec7d5bd14f71427d1e84f3dd0314c0f7b2291e5b200ac8c7c3b92591015b60405180910390a3505050565b600080611187610caf565b609854609780549395509193506000926001600160601b039091169190869081106111b4576111b4612720565b6000918252602090912001546111da90600160a01b90046001600160601b031684612804565b6111e49190612823565b90508284815181106111f8576111f8612720565b602002602001015181111561129357600083858151811061121b5761121b612720565b60200260200101518261122e91906126ec565b9050600084868151811061124457611244612720565b60200260200101518461125791906126ec565b905060005b60975481101561128b578681146112795761127981888585611af9565b8061128381612795565b91505061125c565b505050610ede565b8284815181106112a5576112a5612720565b6020026020010151826112b891906126ec565b915060005b60975481101561132d5784811461131b576112f385828684815181106112e5576112e5612720565b602002602001015186611af9565b83818151811061130557611305612720565b60200260200101518361131891906126ec565b92505b8061132581612795565b9150506112bd565b5050505050565b60008054600160a81b900460ff161561137d578160ff1660011480156113595750303b155b6113755760405162461bcd60e51b815260040161050090612845565b506000919050565b60005460ff808416600160a01b90920416106113ab5760405162461bcd60e51b815260040161050090612845565b506000805460ff909216600160a01b0260ff60a01b19909216919091179055600190565b600054600160a81b900460ff166113f85760405162461bcd60e51b815260040161050090612893565b610cad611deb565b600054600160a81b900460ff166114295760405162461bcd60e51b815260040161050090612893565b6114338282611e1d565b5050565b60006114438484610e7d565b90506000198114610ede578181101561149e5760405162461bcd60e51b815260206004820152601d60248201527f45524332303a20696e73756666696369656e7420616c6c6f77616e63650000006044820152606401610500565b610ede8484848403611057565b6001600160a01b03831661150f5760405162461bcd60e51b815260206004820152602560248201527f45524332303a207472616e736665722066726f6d20746865207a65726f206164604482015264647265737360d81b6064820152608401610500565b6001600160a01b0382166115715760405162461bcd60e51b815260206004820152602360248201527f45524332303a207472616e7366657220746f20746865207a65726f206164647260448201526265737360e81b6064820152608401610500565b6001600160a01b038316600090815260336020526040902054818110156115e95760405162461bcd60e51b815260206004820152602660248201527f45524332303a207472616e7366657220616d6f756e7420657863656564732062604482015265616c616e636560d01b6064820152608401610500565b6001600160a01b038085166000908152603360205260408082208585039055918516815290812080548492906116209084906127ec565b92505081905550826001600160a01b0316846001600160a01b03167fddf252ad1be2c89b69c2b068fc378daa952ba7f163c4a11628f55a4df523b3ef8460405161166c91815260200190565b60405180910390a3610ede565b6040516001600160a01b0380851660248301528316604482015260648101829052610ede9085906323b872dd60e01b906084015b60408051601f198184030181529190526020810180516001600160e01b03166001600160e01b031990931692909217909152611e6d565b600080546040516308b3f14f60e41b81526001600160a01b03868116600483015283921690638b3f14f090602401602060405180830381865afa15801561172f573d6000803e3d6000fd5b505050506040513d601f19601f820116820180604052508101906117539190612703565b600080546040516001600160a01b0391821660248201528882166044820152908716606482015260848101869052919250906117d890630284c3f560e01b9060a4015b60408051601f198184030181529190526020810180516001600160e01b03166001600160e01b0319909316929092179091526001600160a01b03841690611f3f565b9050808060200190518101906117ee91906128de565b9695505050505050565b6001600160a01b03821661184e5760405162461bcd60e51b815260206004820152601f60248201527f45524332303a206d696e7420746f20746865207a65726f2061646472657373006044820152606401610500565b806035600082825461186091906127ec565b90915550506001600160a01b0382166000908152603360205260408120805483929061188d9084906127ec565b90915550506040518181526001600160a01b038316906000907fddf252ad1be2c89b69c2b068fc378daa952ba7f163c4a11628f55a4df523b3ef9060200160405180910390a35050565b600080546040516308b3f14f60e41b81526001600160a01b03848116600483015283921690638b3f14f090602401602060405180830381865afa158015611922573d6000803e3d6000fd5b505050506040513d601f19601f820116820180604052508101906119469190612703565b600054604051631c40341760e21b81526001600160a01b0391821660048201528582166024820152306044820152919250821690637100d05c90606401602060405180830381865afa1580156119a0573d6000803e3d6000fd5b505050506040513d601f19601f820116820180604052508101906108b791906128de565b606580546001600160a01b038381166001600160a01b0319831681179093556040519116919082907f8be0079c531659141344cd1fd0a4f28419497f9722a3daafe3b4186f6b6457e090600090a35050565b600080546040516308b3f14f60e41b81526001600160a01b038481166004830152606093921690638b3f14f090602401602060405180830381865afa158015611a63573d6000803e3d6000fd5b505050506040513d601f19601f82011682018060405250810190611a879190612703565b604051634e89a71160e01b81526001600160a01b03858116600483015291925090821690634e89a71190602401600060405180830381865afa158015611ad1573d6000803e3d6000fd5b505050506040513d6000823e601f3d908101601f191682016040526108b791908101906128f7565b6000611b0484610e4b565b600081518110611b1657611b16612720565b602002602001015190506000611b5560978781548110611b3857611b38612720565b6000918252602090912001546001600160a01b0316838686611cdd565b9050611b8960978681548110611b6d57611b6d612720565b6000918252602090912001546001600160a01b031683836116e4565b50505050505050565b6001600160a01b038216611bf25760405162461bcd60e51b815260206004820152602160248201527f45524332303a206275726e2066726f6d20746865207a65726f206164647265736044820152607360f81b6064820152608401610500565b6001600160a01b03821660009081526033602052604090205481811015611c665760405162461bcd60e51b815260206004820152602260248201527f45524332303a206275726e20616d6f756e7420657863656564732062616c616e604482015261636560f01b6064820152608401610500565b6001600160a01b0383166000908152603360205260408120838303905560358054849290611c959084906126ec565b90915550506040518281526000906001600160a01b038516907fddf252ad1be2c89b69c2b068fc378daa952ba7f163c4a11628f55a4df523b3ef9060200161116f565b505050565b600080546040516308b3f14f60e41b81526001600160a01b03878116600483015283921690638b3f14f090602401602060405180830381865afa158015611d28573d6000803e3d6000fd5b505050506040513d601f19601f82011682018060405250810190611d4c9190612703565b600080546040516001600160a01b039182166024820152898216604482015290881660648201526084810187905260a4810186905291925090611d9a9063097da6d360e41b9060c401611796565b905080806020019051810190611db091906128de565b979650505050505050565b6040516001600160a01b038316602482015260448101829052611cd890849063a9059cbb60e01b906064016116ad565b600054600160a81b900460ff16611e145760405162461bcd60e51b815260040161050090612893565b610cad336119c4565b600054600160a81b900460ff16611e465760405162461bcd60e51b815260040161050090612893565b8151611e599060369060208501906121a9565b508051611cd89060379060208401906121a9565b6000611ec2826040518060400160405280602081526020017f5361666545524332303a206c6f772d6c6576656c2063616c6c206661696c6564815250856001600160a01b0316611f649092919063ffffffff16565b805190915015611cd85780806020019051810190611ee091906129a9565b611cd85760405162461bcd60e51b815260206004820152602a60248201527f5361666545524332303a204552433230206f7065726174696f6e20646964206e6044820152691bdd081cdd58d8d9595960b21b6064820152608401610500565b60606108b783836040518060600160405280602781526020016129e860279139611f7b565b6060611f73848460008561204e565b949350505050565b60606001600160a01b0384163b611fe35760405162461bcd60e51b815260206004820152602660248201527f416464726573733a2064656c65676174652063616c6c20746f206e6f6e2d636f6044820152651b9d1c9858dd60d21b6064820152608401610500565b600080856001600160a01b031685604051611ffe91906129cb565b600060405180830381855af49150503d8060008114612039576040519150601f19603f3d011682016040523d82523d6000602084013e61203e565b606091505b50915091506117ee828286612170565b6060824710156120af5760405162461bcd60e51b815260206004820152602660248201527f416464726573733a20696e73756666696369656e742062616c616e636520666f6044820152651c8818d85b1b60d21b6064820152608401610500565b6001600160a01b0385163b6121065760405162461bcd60e51b815260206004820152601d60248201527f416464726573733a2063616c6c20746f206e6f6e2d636f6e74726163740000006044820152606401610500565b600080866001600160a01b0316858760405161212291906129cb565b60006040518083038185875af1925050503d806000811461215f576040519150601f19603f3d011682016040523d82523d6000602084013e612164565b606091505b5091509150611db08282865b6060831561217f5750816108b7565b82511561218f5782518084602001fd5b8160405162461bcd60e51b8152600401610500919061226e565b8280546121b59061263c565b90600052602060002090601f0160209004810192826121d7576000855561221d565b82601f106121f057805160ff191683800117855561221d565b8280016001018555821561221d579182015b8281111561221d578251825591602001919060010190612202565b5061222992915061222d565b5090565b5b80821115612229576000815560010161222e565b60005b8381101561225d578181015183820152602001612245565b83811115610ede5750506000910152565b602081526000825180602084015261228d816040850160208701612242565b601f01601f19169190910160400192915050565b6001600160a01b038116811461051257600080fd5b600080604083850312156122c957600080fd5b82356122d4816122a1565b946020939093013593505050565b6000602082840312156122f457600080fd5b5035919050565b634e487b7160e01b600052604160045260246000fd5b604051601f8201601f1916810167ffffffffffffffff8111828210171561233a5761233a6122fb565b604052919050565b6001600160601b038116811461051257600080fd5b60006040828403121561236957600080fd5b6040516040810181811067ffffffffffffffff8211171561238c5761238c6122fb565b604052823561239a816122a1565b815260208301356123aa81612342565b60208201529392505050565b60008083601f8401126123c857600080fd5b50813567ffffffffffffffff8111156123e057600080fd5b6020830191508360208285010111156123f857600080fd5b9250929050565b60008060008060008060006080888a03121561241a57600080fd5b873567ffffffffffffffff8082111561243257600080fd5b61243e8b838c016123b6565b909950975060208a013591508082111561245757600080fd5b6124638b838c016123b6565b909750955060408a01359150612478826122a1565b9093506060890135908082111561248e57600080fd5b818a0191508a601f8301126124a257600080fd5b8135818111156124b157600080fd5b8b60208260061b85010111156124c657600080fd5b60208301945080935050505092959891949750929550565b6000806000606084860312156124f357600080fd5b83356124fe816122a1565b9250602084013561250e816122a1565b929592945050506040919091013590565b60006020828403121561253157600080fd5b81356108b7816122a1565b604080825283519082018190526000906020906060840190828701845b8281101561257557815184529284019290840190600101612559565b50505092019290925292915050565b6020808252825182820181905260009190848201906040850190845b818110156125c55783516001600160a01b0316835292840192918401916001016125a0565b50909695505050505050565b600080604083850312156125e457600080fd5b82356125ef816122a1565b915060208301356125ff816122a1565b809150509250929050565b6000806000806080858703121561262057600080fd5b5050823594602084013594506040840135936060013592509050565b600181811c9082168061265057607f821691505b60208210810361267057634e487b7160e01b600052602260045260246000fd5b50919050565b6020808252818101527f4f776e61626c653a2063616c6c6572206973206e6f7420746865206f776e6572604082015260600190565b634e487b7160e01b600052601160045260246000fd5b60006001600160601b038083168185168083038211156126e3576126e36126ab565b01949350505050565b6000828210156126fe576126fe6126ab565b500390565b60006020828403121561271557600080fd5b81516108b7816122a1565b634e487b7160e01b600052603260045260246000fd5b8135612741816122a1565b81546001600160a01b03199081166001600160a01b03929092169182178355602084013561276e81612342565b60a01b1617905550565b60006020828403121561278a57600080fd5b81356108b781612342565b6000600182016127a7576127a76126ab565b5060010190565b60006001600160601b03838116908316818110156127ce576127ce6126ab565b039392505050565b634e487b7160e01b600052603160045260246000fd5b600082198211156127ff576127ff6126ab565b500190565b600081600019048311821515161561281e5761281e6126ab565b500290565b60008261284057634e487b7160e01b600052601260045260246000fd5b500490565b6020808252602e908201527f496e697469616c697a61626c653a20636f6e747261637420697320616c72656160408201526d191e481a5b9a5d1a585b1a5e995960921b606082015260800190565b6020808252602b908201527f496e697469616c697a61626c653a20636f6e7472616374206973206e6f74206960408201526a6e697469616c697a696e6760a81b606082015260800190565b6000602082840312156128f057600080fd5b5051919050565b6000602080838503121561290a57600080fd5b825167ffffffffffffffff8082111561292257600080fd5b818501915085601f83011261293657600080fd5b815181811115612948576129486122fb565b8060051b9150612959848301612311565b818152918301840191848101908884111561297357600080fd5b938501935b8385101561299d578451925061298d836122a1565b8282529385019390850190612978565b98975050505050505050565b6000602082840312156129bb57600080fd5b815180151581146108b757600080fd5b600082516129dd818460208701612242565b919091019291505056fe416464726573733a206c6f772d6c6576656c2064656c65676174652063616c6c206661696c6564a264697066735822122091ee79031e030cc879fcf862231cf4742a1f23d6c9d650130d94ad94f48940ce64736f6c634300080d0033",
  "devdoc": {
    "kind": "dev",
    "methods": {
      "allowance(address,address)": {
        "details": "See {IERC20-allowance}."
      },
      "approve(address,uint256)": {
        "details": "See {IERC20-approve}. NOTE: If `amount` is the maximum `uint256`, the allowance is not updated on `transferFrom`. This is semantically equivalent to an infinite approval. Requirements: - `spender` cannot be the zero address."
      },
      "balanceOf(address)": {
        "details": "See {IERC20-balanceOf}."
      },
      "decimals()": {
        "details": "Returns the number of decimals used to get its user representation. For example, if `decimals` equals `2`, a balance of `505` tokens should be displayed to a user as `5.05` (`505 / 10 ** 2`). Tokens usually opt for a value of 18, imitating the relationship between Ether and Wei. This is the value {ERC20} uses, unless this function is overridden; NOTE: This information is only used for _display_ purposes: it in no way affects any of the arithmetic of the contract, including {IERC20-balanceOf} and {IERC20-transfer}."
      },
      "decreaseAllowance(address,uint256)": {
        "details": "Atomically decreases the allowance granted to `spender` by the caller. This is an alternative to {approve} that can be used as a mitigation for problems described in {IERC20-approve}. Emits an {Approval} event indicating the updated allowance. Requirements: - `spender` cannot be the zero address. - `spender` must have allowance for the caller of at least `subtractedValue`."
      },
      "increaseAllowance(address,uint256)": {
        "details": "Atomically increases the allowance granted to `spender` by the caller. This is an alternative to {approve} that can be used as a mitigation for problems described in {IERC20-approve}. Emits an {Approval} event indicating the updated allowance. Requirements: - `spender` cannot be the zero address."
      },
      "name()": {
        "details": "Returns the name of the token."
      },
      "owner()": {
        "details": "Returns the address of the current owner."
      },
      "renounceOwnership()": {
        "details": "Leaves the contract without owner. It will not be possible to call `onlyOwner` functions anymore. Can only be called by the current owner. NOTE: Renouncing ownership will leave the contract without an owner, thereby removing any functionality that is only available to the owner."
      },
      "symbol()": {
        "details": "Returns the symbol of the token, usually a shorter version of the name."
      },
      "totalSupply()": {
        "details": "See {IERC20-totalSupply}."
      },
      "transfer(address,uint256)": {
        "details": "See {IERC20-transfer}. Requirements: - `to` cannot be the zero address. - the caller must have a balance of at least `amount`."
      },
      "transferFrom(address,address,uint256)": {
        "details": "See {IERC20-transferFrom}. Emits an {Approval} event indicating the updated allowance. This is not required by the EIP. See the note at the beginning of {ERC20}. NOTE: Does not update the allowance if the current allowance is the maximum `uint256`. Requirements: - `from` and `to` cannot be the zero address. - `from` must have a balance of at least `amount`. - the caller must have allowance for ``from``'s tokens of at least `amount`."
      },
      "transferOwnership(address)": {
        "details": "Transfers ownership of the contract to a new account (`newOwner`). Can only be called by the current owner."
      }
    },
    "version": 1
  },
  "userdoc": {
    "kind": "user",
    "methods": {},
    "version": 1
  },
  "storageLayout": {
    "storage": [
      {
        "astId": 4852,
        "contract": "contracts/VaultIndex.sol:VaultIndex",
        "label": "registry",
        "offset": 0,
        "slot": "0",
        "type": "t_contract(IRegistry)5773"
      },
      {
        "astId": 130,
        "contract": "contracts/VaultIndex.sol:VaultIndex",
        "label": "_initialized",
        "offset": 20,
        "slot": "0",
        "type": "t_uint8"
      },
      {
        "astId": 133,
        "contract": "contracts/VaultIndex.sol:VaultIndex",
        "label": "_initializing",
        "offset": 21,
        "slot": "0",
        "type": "t_bool"
      },
      {
        "astId": 1263,
        "contract": "contracts/VaultIndex.sol:VaultIndex",
        "label": "__gap",
        "offset": 0,
        "slot": "1",
        "type": "t_array(t_uint256)50_storage"
      },
      {
        "astId": 284,
        "contract": "contracts/VaultIndex.sol:VaultIndex",
        "label": "_balances",
        "offset": 0,
        "slot": "51",
        "type": "t_mapping(t_address,t_uint256)"
      },
      {
        "astId": 290,
        "contract": "contracts/VaultIndex.sol:VaultIndex",
        "label": "_allowances",
        "offset": 0,
        "slot": "52",
        "type": "t_mapping(t_address,t_mapping(t_address,t_uint256))"
      },
      {
        "astId": 292,
        "contract": "contracts/VaultIndex.sol:VaultIndex",
        "label": "_totalSupply",
        "offset": 0,
        "slot": "53",
        "type": "t_uint256"
      },
      {
        "astId": 294,
        "contract": "contracts/VaultIndex.sol:VaultIndex",
        "label": "_name",
        "offset": 0,
        "slot": "54",
        "type": "t_string_storage"
      },
      {
        "astId": 296,
        "contract": "contracts/VaultIndex.sol:VaultIndex",
        "label": "_symbol",
        "offset": 0,
        "slot": "55",
        "type": "t_string_storage"
      },
      {
        "astId": 875,
        "contract": "contracts/VaultIndex.sol:VaultIndex",
        "label": "__gap",
        "offset": 0,
        "slot": "56",
        "type": "t_array(t_uint256)45_storage"
      },
      {
        "astId": 10,
        "contract": "contracts/VaultIndex.sol:VaultIndex",
        "label": "_owner",
        "offset": 0,
        "slot": "101",
        "type": "t_address"
      },
      {
        "astId": 122,
        "contract": "contracts/VaultIndex.sol:VaultIndex",
        "label": "__gap",
        "offset": 0,
        "slot": "102",
        "type": "t_array(t_uint256)49_storage"
      },
      {
        "astId": 5074,
        "contract": "contracts/VaultIndex.sol:VaultIndex",
        "label": "components",
        "offset": 0,
        "slot": "151",
        "type": "t_array(t_struct(Component)5781_storage)dyn_storage"
      },
      {
        "astId": 5076,
        "contract": "contracts/VaultIndex.sol:VaultIndex",
        "label": "totalWeight",
        "offset": 0,
        "slot": "152",
        "type": "t_uint96"
      }
    ],
    "types": {
      "t_address": {
        "encoding": "inplace",
        "label": "address",
        "numberOfBytes": "20"
      },
      "t_array(t_struct(Component)5781_storage)dyn_storage": {
        "base": "t_struct(Component)5781_storage",
        "encoding": "dynamic_array",
        "label": "struct IVaultIndex.Component[]",
        "numberOfBytes": "32"
      },
      "t_array(t_uint256)45_storage": {
        "base": "t_uint256",
        "encoding": "inplace",
        "label": "uint256[45]",
        "numberOfBytes": "1440"
      },
      "t_array(t_uint256)49_storage": {
        "base": "t_uint256",
        "encoding": "inplace",
        "label": "uint256[49]",
        "numberOfBytes": "1568"
      },
      "t_array(t_uint256)50_storage": {
        "base": "t_uint256",
        "encoding": "inplace",
        "label": "uint256[50]",
        "numberOfBytes": "1600"
      },
      "t_bool": {
        "encoding": "inplace",
        "label": "bool",
        "numberOfBytes": "1"
      },
      "t_contract(IRegistry)5773": {
        "encoding": "inplace",
        "label": "contract IRegistry",
        "numberOfBytes": "20"
      },
      "t_mapping(t_address,t_mapping(t_address,t_uint256))": {
        "encoding": "mapping",
        "key": "t_address",
        "label": "mapping(address => mapping(address => uint256))",
        "numberOfBytes": "32",
        "value": "t_mapping(t_address,t_uint256)"
      },
      "t_mapping(t_address,t_uint256)": {
        "encoding": "mapping",
        "key": "t_address",
        "label": "mapping(address => uint256)",
        "numberOfBytes": "32",
        "value": "t_uint256"
      },
      "t_string_storage": {
        "encoding": "bytes",
        "label": "string",
        "numberOfBytes": "32"
      },
      "t_struct(Component)5781_storage": {
        "encoding": "inplace",
        "label": "struct IVaultIndex.Component",
        "members": [
          {
            "astId": 5778,
            "contract": "contracts/VaultIndex.sol:VaultIndex",
            "label": "vault",
            "offset": 0,
            "slot": "0",
            "type": "t_address"
          },
          {
            "astId": 5780,
            "contract": "contracts/VaultIndex.sol:VaultIndex",
            "label": "targetWeight",
            "offset": 20,
            "slot": "0",
            "type": "t_uint96"
          }
        ],
        "numberOfBytes": "32"
      },
      "t_uint256": {
        "encoding": "inplace",
        "label": "uint256",
        "numberOfBytes": "32"
      },
      "t_uint8": {
        "encoding": "inplace",
        "label": "uint8",
        "numberOfBytes": "1"
      },
      "t_uint96": {
        "encoding": "inplace",
        "label": "uint96",
        "numberOfBytes": "12"
      }
    }
  }
}