{
  "address": "0xBB03Cf9c317c130D109840c3F81A6eb6d1C91Ffe",
  "abi": [
    {
      "anonymous": false,
      "inputs": [
        {
          "indexed": true,
          "internalType": "address",
          "name": "previousOwner",
          "type": "address"
        },
        {
          "indexed": true,
          "internalType": "address",
          "name": "newOwner",
          "type": "address"
        }
      ],
      "name": "OwnershipTransferred",
      "type": "event"
    },
    {
      "inputs": [
        {
          "internalType": "bytes32",
          "name": "",
          "type": "bytes32"
        }
      ],
      "name": "getPipelineData",
      "outputs": [
        {
          "internalType": "bytes",
          "name": "",
          "type": "bytes"
        }
      ],
      "stateMutability": "view",
      "type": "function"
    },
    {
      "inputs": [
        {
          "internalType": "address",
          "name": "",
          "type": "address"
        }
      ],
      "name": "getVaultPipeline",
      "outputs": [
        {
          "internalType": "address",
          "name": "",
          "type": "address"
        }
      ],
      "stateMutability": "view",
      "type": "function"
    },
    {
      "inputs": [],
      "name": "owner",
      "outputs": [
        {
          "internalType": "address",
          "name": "",
          "type": "address"
        }
      ],
      "stateMutability": "view",
      "type": "function"
    },
    {
      "inputs": [],
      "name": "renounceOwnership",
      "outputs": [],
      "stateMutability": "nonpayable",
      "type": "function"
    },
    {
      "inputs": [
        {
          "internalType": "bytes32",
          "name": "slot",
          "type": "bytes32"
        },
        {
          "internalType": "bytes",
          "name": "data",
          "type": "bytes"
        }
      ],
      "name": "setPipelineData",
      "outputs": [],
      "stateMutability": "nonpayable",
      "type": "function"
    },
    {
      "inputs": [
        {
          "internalType": "address",
          "name": "vault",
          "type": "address"
        },
        {
          "internalType": "address",
          "name": "pipeline",
          "type": "address"
        }
      ],
      "name": "setVaultPipeline",
      "outputs": [],
      "stateMutability": "nonpayable",
      "type": "function"
    },
    {
      "inputs": [
        {
          "internalType": "address",
          "name": "newOwner",
          "type": "address"
        }
      ],
      "name": "transferOwnership",
      "outputs": [],
      "stateMutability": "nonpayable",
      "type": "function"
    }
  ],
  "transactionHash": "0x84f1c54e40eb0285b1b24ab5e74f699b00ccaed9af1b1825d3ffcd0bdf1053c8",
  "args": [],
  "numDeployments": 1,
  "solcInputHash": "d926dd4491f51477086acd9f2ab9f278",
  "bytecode": "0x608060405234801561001057600080fd5b5061001a3361001f565b61006f565b600080546001600160a01b038381166001600160a01b0319831681178455604051919092169283917f8be0079c531659141344cd1fd0a4f28419497f9722a3daafe3b4186f6b6457e09190a35050565b6106988061007e6000396000f3fe608060405234801561001057600080fd5b506004361061007d5760003560e01c806387ade7761161005b57806387ade776146100b25780638b3f14f0146100db5780638da5cb5b1461011c578063f2fde38b1461012d57600080fd5b80630b436e9b14610082578063715018a61461009757806373144ff91461009f575b600080fd5b61009561009036600461045f565b610140565b005b6100956101a1565b6100956100ad3660046104a8565b6101d7565b6100c56100c0366004610563565b610225565b6040516100d2919061057c565b60405180910390f35b6101046100e93660046105d1565b6001602052600090815260409020546001600160a01b031681565b6040516001600160a01b0390911681526020016100d2565b6000546001600160a01b0316610104565b61009561013b3660046105d1565b6102bf565b6000546001600160a01b031633146101735760405162461bcd60e51b815260040161016a906105f3565b60405180910390fd5b6001600160a01b03918216600090815260016020526040902080546001600160a01b03191691909216179055565b6000546001600160a01b031633146101cb5760405162461bcd60e51b815260040161016a906105f3565b6101d5600061035a565b565b6000546001600160a01b031633146102015760405162461bcd60e51b815260040161016a906105f3565b60008281526002602090815260409091208251610220928401906103aa565b505050565b6002602052600090815260409020805461023e90610628565b80601f016020809104026020016040519081016040528092919081815260200182805461026a90610628565b80156102b75780601f1061028c576101008083540402835291602001916102b7565b820191906000526020600020905b81548152906001019060200180831161029a57829003601f168201915b505050505081565b6000546001600160a01b031633146102e95760405162461bcd60e51b815260040161016a906105f3565b6001600160a01b03811661034e5760405162461bcd60e51b815260206004820152602660248201527f4f776e61626c653a206e6577206f776e657220697320746865207a65726f206160448201526564647265737360d01b606482015260840161016a565b6103578161035a565b50565b600080546001600160a01b038381166001600160a01b0319831681178455604051919092169283917f8be0079c531659141344cd1fd0a4f28419497f9722a3daafe3b4186f6b6457e09190a35050565b8280546103b690610628565b90600052602060002090601f0160209004810192826103d8576000855561041e565b82601f106103f157805160ff191683800117855561041e565b8280016001018555821561041e579182015b8281111561041e578251825591602001919060010190610403565b5061042a92915061042e565b5090565b5b8082111561042a576000815560010161042f565b80356001600160a01b038116811461045a57600080fd5b919050565b6000806040838503121561047257600080fd5b61047b83610443565b915061048960208401610443565b90509250929050565b634e487b7160e01b600052604160045260246000fd5b600080604083850312156104bb57600080fd5b82359150602083013567ffffffffffffffff808211156104da57600080fd5b818501915085601f8301126104ee57600080fd5b81358181111561050057610500610492565b604051601f8201601f19908116603f0116810190838211818310171561052857610528610492565b8160405282815288602084870101111561054157600080fd5b8260208601602083013760006020848301015280955050505050509250929050565b60006020828403121561057557600080fd5b5035919050565b600060208083528351808285015260005b818110156105a95785810183015185820160400152820161058d565b818111156105bb576000604083870101525b50601f01601f1916929092016040019392505050565b6000602082840312156105e357600080fd5b6105ec82610443565b9392505050565b6020808252818101527f4f776e61626c653a2063616c6c6572206973206e6f7420746865206f776e6572604082015260600190565b600181811c9082168061063c57607f821691505b60208210810361065c57634e487b7160e01b600052602260045260246000fd5b5091905056fea26469706673582212203fb321145eb8a35e138c9bba58477082846c7fc5b317d89bf3ae4c58f6f5746264736f6c634300080d0033",
  "devdoc": {
    "kind": "dev",
    "methods": {
      "owner()": {
        "details": "Returns the address of the current owner."
      },
      "renounceOwnership()": {
        "details": "Leaves the contract without owner. It will not be possible to call `onlyOwner` functions anymore. Can only be called by the current owner. NOTE: Renouncing ownership will leave the contract without an owner, thereby removing any functionality that is only available to the owner."
      },
      "transferOwnership(address)": {
        "details": "Transfers ownership of the contract to a new account (`newOwner`). Can only be called by the current owner."
      }
    },
    "version": 1
  },
  "userdoc": {
    "kind": "user",
    "methods": {},
    "version": 1
  },
  "storageLayout": {
    "storage": [
      {
        "astId": 1815,
        "contract": "contracts/Registry.sol:Registry",
        "label": "_owner",
        "offset": 0,
        "slot": "0",
        "type": "t_address"
      },
      {
        "astId": 5012,
        "contract": "contracts/Registry.sol:Registry",
        "label": "getVaultPipeline",
        "offset": 0,
        "slot": "1",
        "type": "t_mapping(t_address,t_address)"
      },
      {
        "astId": 5016,
        "contract": "contracts/Registry.sol:Registry",
        "label": "getPipelineData",
        "offset": 0,
        "slot": "2",
        "type": "t_mapping(t_bytes32,t_bytes_storage)"
      }
    ],
    "types": {
      "t_address": {
        "encoding": "inplace",
        "label": "address",
        "numberOfBytes": "20"
      },
      "t_bytes32": {
        "encoding": "inplace",
        "label": "bytes32",
        "numberOfBytes": "32"
      },
      "t_bytes_storage": {
        "encoding": "bytes",
        "label": "bytes",
        "numberOfBytes": "32"
      },
      "t_mapping(t_address,t_address)": {
        "encoding": "mapping",
        "key": "t_address",
        "label": "mapping(address => address)",
        "numberOfBytes": "32",
        "value": "t_address"
      },
      "t_mapping(t_bytes32,t_bytes_storage)": {
        "encoding": "mapping",
        "key": "t_bytes32",
        "label": "mapping(bytes32 => bytes)",
        "numberOfBytes": "32",
        "value": "t_bytes_storage"
      }
    }
  }
}